:100000000C945C000C94F0010C9479000C94790031
:100010000C9479000C9479000C9479000C9479007C
:100020000C9479000C9479000C9479000C9479006C
:100030000C9479000C9479000C9479000C9479005C
:100040000C9479000C9479000C9479000C9479004C
:100050000C9479000C9479000C9479000C9479003C
:100060000C9479000C947900000000080002010053
:100070000003040700000000000000000000000072
:10008000250028002B0000000000240027002A0083
:10009000040404040404040402020202020203032E
:1000A0000303030301020408102040800102040836
:1000B000102001020408102011241FBECFEFD8E049
:1000C000DEBFCDBF11E0A0E0B1E0EEE8F6E002C097
:1000D00005900D92A031B107D9F721E0A0E1B1E080
:1000E00001C01D92AF31B207E1F70E9430020C94BB
:1000F00045030C94000090E0FC01EC55FF4F249167
:1001000080579F4FFC018491882399F090E0880FDD
:10011000991FFC01EA57FF4FA591B491FC01E458E7
:10012000FF4F859194918FB7F894EC91E22BEC936B
:100130008FBF089590E0FC01E859FF4F2491FC0126
:10014000EC55FF4F3491FC01E057FF4FE491EE2353
:10015000C9F0222339F0233001F1A8F4213019F13C
:10016000223029F1F0E0EE0FFF1FE458FF4FA59178
:10017000B4918FB7F894EC91611126C030953E236D
:100180003C938FBF08952730A9F02830C9F0243060
:1001900049F7809180008F7D03C0809180008F7728
:1001A00080938000DFCF84B58F7784BDDBCF84B5AB
:1001B0008F7DFBCF8091B0008F778093B000D2CF3E
:1001C0008091B0008F7DF9CF3E2BDACFFF920F9355
:1001D0001F93CF93DF93F82E082F10E0B80184E02F
:1001E000759567958A95E1F76170C8E1D1E08B81DB
:1001F0000E949A00B80195E0759567959A95E1F788
:100200008C810E949A0060E08D810E949A0060E0DB
:100210008E810E949A0061E08A810E949A0060E0CB
:1002200089810E949A0060E088810E949A008FE391
:100230009FE10197F1F700C0000060E08A810E9411
:100240009A006F2D61708B810E949A00B80175959C
:10025000679561708C810E949A00B80175956795C9
:100260007595679561708D810E949A0043E01595A0
:1002700007954A95E1F7602F61708E810E949A0080
:1002800061E08A810E949A0060E089810E949A0060
:1002900060E088810E949A008FE39FE10197F1F767
:1002A00000C0000060E08A81DF91CF911F910F9123
:1002B000FF900C949A00EF92FF921F93CF93DF93DD
:1002C0007C01F70111917F01112309F483C0C12F33
:1002D000D0E0BE0184E0759567958A95E1F761707D
:1002E00080911B010E949A00BE0195E0759567956B
:1002F0009A95E1F7617080911C010E949A00BE01FD
:1003000026E0759567952A95E1F7617080911D014A
:100310000E949A00612F661F6627661F80911E014A
:100320000E949A0061E080911A010E949A0060E0A8
:10033000809119010E949A0061E0809118010E9449
:100340009A008FE39FE10197F1F700C0000060E0A1
:1003500080911A010E949A00612F617080911B01A7
:100360000E949A00BE0175956795617080911C018D
:100370000E949A00BE0175956795759567956170A5
:1003800080911D010E949A0053E0D595C7955A951A
:10039000E1F76C2F617080911E010E949A0061E06C
:1003A00080911A010E949A0060E0809119010E94D8
:1003B0009A0061E0809118010E949A00EFE3FFE14A
:1003C0003197F1F700C0000060E080911A010E94AF
:1003D0009A0077CFDF91CF911F91FF90EF90089512
:1003E0001F920F920FB60F9211245F936F937F931A
:1003F0008F939F93AF93BF938091160190911701B4
:10040000892BB9F48091810081608093810081E023
:1004100090E09093170180931601BF91AF919F9147
:100420008F917F916F915F910F900FBE0F901F90F2
:1004300018951092810080918400909185006AE364
:1004400070E00E941D0370931501609314011092D7
:100450008500109284001092170110921601DDCFD2
:10046000CF93DF93CDB7DEB72A970FB6F894DEBFF0
:100470000FBECDBF83E08093120182E08093130111
:10048000539A529880916900816080936900E89A3C
:100490001092800081E08093810088E080931801B1
:1004A00089E0809319018AE080931A018BE08093A0
:1004B0001B018CE080931C018DE080931D018EE078
:1004C00080931E0188E00E947B00809119010E94A8
:1004D0007B0080911A010E947B0080911B010E9489
:1004E0007B0080911C010E947B0080911D010E9475
:1004F0007B0080911E010E947B0083E30E94E60046
:1005000082E30E94E60088E20E94E6008CE00E94FE
:10051000E60081E00E94E6008FE39FE10197F1F79A
:1005200000C00000789401E010E08BB190911201BE
:10053000980101C0220F9A95EAF7822B8BB990E5BA
:100540009A95F1F72BB180911201A80102C0440FD6
:10055000551F8A95E2F7CA01809582238BB95FEF18
:1005600080E792E0515080409040E1F700C00000E9
:1005700080911401909115019093110180931001C5
:1005800081E00E94E60080E091E00E945B018091A2
:1005900010019091110197FF03C0919581959109E8
:1005A0004AE0BE016F5F7F4F0E94E802CE010196D4
:1005B0000E945B018BE091E00E945B012FEF43ED15
:1005C00050E3215040405040E1F700C00000ADCF63
:1005D000BB274A3031F4992322F4BDE290958195EE
:1005E0009F4F0C94F402BB27FB015527AA27880FC5
:1005F000991FAA1FA41710F0A41B83955051B9F797
:10060000A05DAA3308F0A95DA193009779F7B11115
:10061000B1931192CB010C940D03DC01FC01672F07
:1006200071917723E1F7329704C07C916D937083C9
:100630006291AE17BF07C8F3089597FB072E16F413
:10064000009407D077FD09D00E94310307FC05D044
:100650003EF4909581959F4F0895709561957F4FD9
:100660000895AA1BBB1B51E107C0AA1FBB1FA617F9
:10067000B70710F0A61BB70B881F991F5A95A9F74B
:0E06800080959095BC01CD010895F894FFCFB0
:10068E0044697374616E63653A200020636D0000E7
:00000001FF
