:0400000007EF00F016
:100008007F8256ED3CF057EF3AF00001CC51D96EA3
:10001800DA6ADECFF6FFDDCFF7FF0800F550250AD4
:10002800D8A419EF00F01BEF00F026EF09F0CC512F
:10003800D96EDA6ADE2A000EDD22000E0101AB6FEE
:10004800000EAA6FAAC1B0F1AC69AD69000E00013B
:10005800DC6F77EF00F00101B0810001CC51D96E5F
:10006800DA6ADE2A000EDD2277EF00F00101B083A4
:1000780031EF00F00101B08531EF00F00101B087E8
:1000880031EF00F00101B08931EF00F0010EDC6FB3
:1000980077EF00F0CC51D96EDA6ADECFF6FFDDCF0C
:1000A800F7FF0800F550CE6FCF6BCF51000AD8B4D8
:1000B80060EF00F04AEF00F0CE51200AD8B442EFCA
:1000C80000F0030AD8B446EF00F0080AD8B43EEFAF
:1000D80000F0060AD8B42FEF00F01D0AD8B43AEFA2
:1000E80000F04AEF00F0DC51D8B47DEF00F07FEF6C
:1000F80000F04EEF00F00101B0A185EF00F087EFAE
:1001080000F088EF00F0B093CCC007F0CDC008F045
:10011800B0EC36F007C0AAF108C0ABF10101ABBFE3
:100128009AEF00F098EF00F09FEF00F0B081AA6D11
:10013800AB1FD8B0AB2B0001CC51D96EDA6ADECF39
:10014800F6FFDDCFF7FF0800F5502E0AD8A4AFEF71
:1001580000F0B1EF00F0C1EF00F0CC51D96EDA6ACF
:10016800DE2A000EDD22CCC007F0CDC008F0B0ECCE
:1001780036F007C0ACF108C0ADF10001CC51D96E22
:10018800DA6ADECFF6FFDDCFF7FF0800F550630A25
:10019800D8A4D1EF00F0D3EF00F0F8EF00F0CC5185
:1001A800D96EDA6ADE2A000EDD22CD51D96EDA6AFE
:1001B800DFCFCEF0020EDE26DFCFCFF0000EDD223D
:1001C800CEC0D9FFCFC0DAFFDF50DD6FCAC00AF05A
:1001D800CBC00BF0DDC00CF015EC35F00AC0CAF04E
:1001E8000BC0CBF040EF09F0CC51D96EDA6ADECF04
:1001F800E6F0DDCFE7F0E6C0F6FFE7C0F7FF08005E
:10020800F5CFDDF03AEF01F0E64BE72BE6C0F6FF5D
:10021800E7C0F7FF0800F550680AD8A416EF01F008
:1002280018EF01F077EF01F0480EDD6FE64BE72B92
:1002380077EF01F0E64BE72BE6C0F6FFE7C0F7FFE4
:100248000800F5506C0AD8A42CEF01F02EEF01F04D
:1002580077EF01F04C0EDD6F1AEF01F0690EDD6FDC
:1002680077EF01F0000EDD6F77EF01F0DD51CE6F13
:10027800CF6BCF51000AD8B444EF01F036EF01F04C
:10028800CE51580AD8B432EF01F03C0AD8B432EF54
:1002980001F00C0AD8B408EF01F0010AD8B432EF23
:1002A80001F0030AD8B41AEF01F0060AD8B41EEF19
:1002B80001F0020AD8B432EF01F0010AD8B432EFE3
:1002C80001F01B0AD8B41AEF01F0010AD8B432EFD2
:1002D80001F00D0AD8B432EF01F0020AD8B41AEFCF
:1002E80001F036EF01F0E6C0F6FFE7C0F7FF0800BF
:1002F800F550640AD8B483EF01F085EF01F0C7EF39
:1003080002F0E6C0F6FFE7C0F7FF0800F550690AFB
:10031800D8A491EF01F093EF01F01DEF03F0C7EFC0
:1003280002F0CD51D96EDA6ADFCFCEF0020EDE26AA
:10033800DFCFCFF0000EDD22CEC0D9FFCFC0DAFF6D
:10034800DECFDEF0DDCFDFF0000EDFBFFF0EE06FA7
:10035800E16FE26FE36FE46FE56FF4EF02F0CD5108
:10036800D96EDA6ADFCFCEF0020EDE26DFCFCFF00D
:10037800000EDD22CEC0D9FFCFC0DAFFDECFDEF01F
:10038800DDCFDFF0000EDFBFFF0EE06FE16FE26F41
:10039800E36FE46FE56FF4EF02F0CD51D96EDA6ADE
:1003A800DFCFCEF0020EDE26DFCFCFF0000EDD224B
:1003B800CEC0D9FFCFC0DAFFDF50DE6F000EDEBF40
:1003C800FF0EDF6FE06FE16FE26FE36FE46FE56FE1
:1003D800F4EF02F0CD51D96EDA6ADFCFCEF0040E19
:1003E800DE26DFCFCFF0000EDD22CEC0D9FFCFC092
:1003F800DAFFDECFD0F0DECFD1F0DECFD2F0DECF25
:10040800D3F0D0C0D4F0D1C0D5F0D2C0D6F0D3C08C
:10041800D7F0D86BD7BFD869D8C0D9F0D8C0DAF030
:10042800D8C0DBF0D4C0DEF0D5C0DFF0D6C0E0F035
:10043800D7C0E1F0D8C0E2F0D9C0E3F0DAC0E4F008
:10044800DBC0E5F0F4EF02F0CD51D96EDA6ADFCF08
:10045800CEF0080EDE26DFCFCFF0000EDD22CEC0B4
:10046800D9FFCFC0DAFFDECFD0F0DECFD1F0DECFBC
:10047800D2F0DECFD3F0DECFD4F0DECFD5F0DECFB2
:10048800D6F0DECFD7F0D0C0DEF0D1C0DFF0D2C0DA
:10049800E0F0D3C0E1F0D4C0E2F0D5C0E3F0D6C0BC
:1004A800E4F0D7C0E5F0F4EF02F0CD51D96EDA6A86
:1004B800DFCFCEF0020EDE26DFCFCFF0000EDD223A
:1004C800CEC0D9FFCFC0DAFFDECFDEF0DDCFDFF060
:1004D800000EDFBFFF0EE06FE16FE26FE36FE46FC6
:1004E800E56FF4EF02F0CD51D96EDA6ADFCFCEF0C6
:1004F800080EDE26DFCFCFF0000EDD22CEC0D9FFFA
:10050800CFC0DAFFDECFD0F0DECFD1F0DECFD2F031
:10051800DECFD3F0DECFD4F0DECFD5F0DECFD6F00D
:10052800DECFD7F0D0C0DEF0D1C0DFF0D2C0E0F02F
:10053800D3C0E1F0D4C0E2F0D5C0E3F0D6C0E4F017
:10054800D7C0E5F0F4EF02F0CD51D96EDA6ADFCF0B
:10055800CEF0020EDE26DFCFCFF0000EDD22CEC0B9
:10056800D9FFCFC0DAFFDECFD0F0DDCFD1F0D0C0D9
:10057800DEF0D1C0DFF0E06BE16BE26BE36BE46BC4
:10058800E56BF4EF02F0DD51CE6FCF6BCF51000A6F
:10059800D8B4D1EF02F0F4EF02F0CE51480AD8B443
:1005A800D1EF01F0040AD8B428EF02F0240AD8B435
:1005B800B3EF01F0010AD8B495EF01F0030AD8B4FB
:1005C80077EF02F0060AD8B4EEEF01F0180AD8B4B3
:1005D80059EF02F00E0AD8B4A8EF02F0F4EF02F0D7
:1005E800010EE625CE6F000EE721CF6FCC51D96EF4
:1005F800DA6ACEC0DEFFCFC0DDFFCAC01BF0CBC0B9
:100608001CF0DEC01DF0DFC01EF0E0C01FF0E1C02E
:1006180020F0E2C021F0E3C022F0E4C023F0E5C0FE
:1006280024F082EC22F01BC0CAF01CC0CBF040EFD3
:1006380009F0E6C0F6FFE7C0F7FF0800F550780AB2
:10064800D8B429EF03F02BEF03F075EF04F0E6C000
:10065800F6FFE7C0F7FF0800F550580AD8B437EF9F
:1006680003F039EF03F075EF04F0E6C0F6FFE7C0DA
:10067800F7FF0800F5506F0AD8B445EF03F047EFCD
:1006880003F075EF04F0E6C0F6FFE7C0F7FF0800D7
:10069800F550750AD8A453EF03F055EF03F02EEF89
:1006A80005F075EF04F0CD51D96EDA6ADFCFCEF0E0
:1006B800020EDE26DFCFCFF0000EDD22CEC0D9FF3E
:1006C800CFC0DAFFDECFD0F0DDCFD1F0D0C0DEF082
:1006D800D1C0DFF0E06BE16BE26BE36BE46BE56BE1
:1006E800A2EF04F0CD51D96EDA6ADFCFCEF0020E58
:1006F800DE26DFCFCFF0000EDD22CEC0D9FFCFC07F
:10070800DAFFDECFD0F0DDCFD1F0D0C0DEF0D1C03F
:10071800DFF0E06BE16BE26BE36BE46BE56BA2EFA0
:1007280004F0CD51D96EDA6ADFCFCEF0020EDE26A4
:10073800DFCFCFF0000EDD22CEC0D9FFCFC0DAFF69
:10074800DF50D06FD051DE6FDF6BE06BE16BE26B97
:10075800E36BE46BE56BA2EF04F0CD51D96EDA6A76
:10076800DFCFCEF0040EDE26DFCFCFF0000EDD2285
:10077800CEC0D9FFCFC0DAFFDECFD0F0DECFD1F0C8
:10078800DECFD2F0DECFD3F0D051DE6FD151DF6FA4
:10079800D251E06FD351E16FE26BE36BE46BE56B31
:1007A800A2EF04F0CD51D96EDA6ADFCFCEF0080E91
:1007B800DE26DFCFCFF0000EDD22CEC0D9FFCFC0BE
:1007C800DAFFDECFD0F0DECFD1F0DECFD2F0DECF51
:1007D800D3F0DECFD4F0DECFD5F0DECFD6F0DECF4B
:1007E800D7F0D0C0DEF0D1C0DFF0D2C0E0F0D3C087
:1007F800E1F0D4C0E2F0D5C0E3F0D6C0E4F0D7C051
:10080800E5F0A2EF04F0CD51D96EDA6ADFCFCEF071
:10081800020EDE26DFCFCFF0000EDD22CEC0D9FFDC
:10082800CFC0DAFFDECFDEF0DDCFDFF0000EDFBFB6
:10083800FF0EE06FE16FE26FE36FE46FE56FA2EF29
:1008480004F0CD51D96EDA6ADFCFCEF0080EDE267D
:10085800DFCFCFF0000EDD22CEC0D9FFCFC0DAFF48
:10086800DECFD0F0DECFD1F0DECFD2F0DECFD3F0C6
:10087800DECFD4F0DECFD5F0DECFD6F0DECFD7F0A6
:10088800D0C0DEF0D1C0DFF0D2C0E0F0D3C0E1F0DC
:10089800D4C0E2F0D5C0E3F0D6C0E4F0D7C0E5F0AC
:1008A800A2EF04F0CD51D96EDA6ADFCFCEF0020E96
:1008B800DE26DFCFCFF0000EDD22CEC0D9FFCFC0BD
:1008C800DAFFDECFD0F0DDCFD1F0D0C0DEF0D1C07E
:1008D800DFF0E06BE16BE26BE36BE46BE56BA2EFDF
:1008E80004F0DD51CE6FCF6BCF51000AD8B47FEF43
:1008F80004F0A2EF04F0CE51480AD8B495EF03F003
:10090800040AD8B4D6EF03F0240AD8B476EF03F07B
:10091800010AD8B457EF03F0030AD8B425EF04F05E
:10092800060AD8B4B1EF03F0180AD8B407EF04F0F8
:100938000E0AD8B456EF04F0A2EF04F0010EE62533
:10094800CE6F000EE721CF6FCC51D96EDA6ACEC0D8
:10095800DEFFCFC0DDFF0CEF05F0CAC01AF0CBC038
:100968001BF0DEC01CF0DFC01DF0E0C01EF0E1C0CF
:100978001FF0E2C020F0E3C021F0E4C022F0E5C09F
:1009880023F01EEC2AF01AC0CAF01BC0CBF040EFCF
:1009980009F0CAC01AF0CBC01BF0DEC01CF0DFC0E3
:1009A8001DF0E0C01EF0E1C01FF0E2C020F0E3C07F
:1009B80021F0E4C022F0E5C023F04AEC28F01AC088
:1009C800CAF01BC0CBF040EF09F0CAC01AF0CBC088
:1009D8001BF0DEC01CF0DFC01DF0E0C01EF0E1C05F
:1009E8001FF0E2C020F0E3C021F0E4C022F0E5C02F
:1009F80023F0E6C0F6FFE7C0F7FF0800F5CF24F0C4
:100A0800C9EC23F01AC0CAF01BC0CBF040EF09F0C4
:100A1800E6C0F6FFE7C0F7FF0800F550CE6FCF6BD2
:100A2800CF51000AD8B41BEF05F02EEF05F0CE51D8
:100A3800580AD8B4E9EF04F0370AD8B4B1EF04F093
:100A48001A0AD8B4CDEF04F00D0AD8B4E9EF04F0CF
:100A58002EEF05F0E6C0F6FFE7C0F7FF0800F550F7
:100A68006E0AD8A43AEF05F03CEF05F0A3EF06F0C4
:100A780063EF06F0CD51D96EDA6ADFCFCEF0020E01
:100A8800DE26DFCFCFF0000EDD22CEC0D9FFCFC0EB
:100A9800DAFFDECFD0F0DDCFD1F0D0C0D9FFD1C0A2
:100AA800DAFFA8C1DEFFA9C1DDFF90EF06F0CD5146
:100AB800D96EDA6ADFCFCEF0020EDE26DFCFCFF0B6
:100AC800000EDD22CEC0D9FFCFC0DAFFDECFD0F0D6
:100AD800DDCFD1F0D0C0D9FFD1C0DAFFA8C1DEFF89
:100AE800A9C1DDFF90EF06F0CD51D96EDA6ADFCFEC
:100AF800CEF0020EDE26DFCFCFF0000EDD22CEC014
:100B0800D9FFCFC0DAFFDECFD0F0DDCFD1F0D0C033
:100B1800D9FFD1C0DAFFA8C1DFFF90EF06F0A8C166
:100B2800CEF0A9C1CFF0000ECFBFFF0ED06FD16FAE
:100B3800CD51D96EDA6ADFCFD2F0020EDE26DFCFD2
:100B4800D3F0000EDD22D2C0D9FFD3C0DAFFDECF4A
:100B5800D4F0DDCFD5F0D4C0D9FFD5C0DAFFCEC0F0
:100B6800DEFFCFC0DEFFD0C0DEFFD1C0DEFF90EFDA
:100B780006F0A8C1CEF0A9C1CFF0000ECFBFFF0E7E
:100B8800D06FD16FD26FD36FD46FD56FCD51D96E6F
:100B9800DA6ADFCFD6F0020EDE26DFCFD7F0000EFE
:100BA800DD22D6C0D9FFD7C0DAFFDECFD8F0DDCF3F
:100BB800D9F0D8C0D9FFD9C0DAFFCEC0DEFFCFC088
:100BC800DEFFD0C0DEFFD1C0DEFFD2C0DEFFD3C063
:100BD800DEFFD4C0DEFFD5C0DEFF90EF06F0CD51BA
:100BE800D96EDA6ADFCFCEF0020EDE26DFCFCFF085
:100BF800000EDD22CEC0D9FFCFC0DAFFDECFD0F0A5
:100C0800DDCFD1F0D0C0D9FFD1C0DAFFA8C1DEFF57
:100C1800A9C1DDFF90EF06F0A8C1CEF0A9C1CFF0C1
:100C2800000ECFBFFF0ED06FD16FD26FD36FD46FCE
:100C3800D56FCD51D96EDA6ADFCFD6F0020EDE2637
:100C4800DFCFD7F0000EDD22D6C0D9FFD7C0DAFF3C
:100C5800DECFD8F0DDCFD9F0D8C0D9FFD9C0DAFFC0
:100C6800CEC0DEFFCFC0DEFFD0C0DEFFD1C0DEFFCA
:100C7800D2C0DEFFD3C0DEFFD4C0DEFFD5C0DEFFAA
:100C880090EF06F0CD51D96EDA6ADFCFCEF0020EC2
:100C9800DE26DFCFCFF0000EDD22CEC0D9FFCFC0D9
:100CA800DAFFDECFD0F0DDCFD1F0D0C0D9FFD1C090
:100CB800DAFFA8C1DEFFA9C1DDFF90EF06F0DD5124
:100CC800CE6FCF6BCF51000AD8B46DEF06F090EF1E
:100CD80006F0CE51480AD8B478EF05F0040AD8B423
:100CE800BDEF05F0240AD8B45BEF05F0010AD8B4CB
:100CF8003EEF05F0030AD8B410EF06F0060AD8B4A0
:100D080093EF05F0180AD8B4F3EF05F00E0AD8B43B
:100D180046EF06F090EF06F0010EE625CE6F000EC6
:100D2800E721CF6FCC51D96EDA6ACEC0DEFFCFC0D3
:100D3800DDFF000ECB6F000ECA6F40EF09F0CC51FB
:100D4800D96EDA6ADECFF6FFDDCFF7FF0800F5507F
:100D5800700AD8A4B2EF06F0B4EF06F0E5EF06F09B
:100D6800CC51D96EDA6ADE2A000EDD22CAC01AF02A
:100D7800CBC01BF0CD51D96EDA6ADFCFCEF0020EB0
:100D8800DE26DFCFCFF0000EDD22CEC0D9FFCFC0E8
:100D9800DAFFDECFD0F0DDCFD1F0D0C01CF0D1C06B
:100DA8001DF01E6A1F6A206A216A226A236A780E69
:100DB800246EC9EC23F01AC0CAF01BC0CBF040EF78
:100DC80009F0000EDC6FCC51D96EDA6ADECFF6FF7F
:100DD800DDCFF7FF0800F550730AD8A4F6EF06F048
:100DE800F8EF06F002EF07F0CC51D96EDA6ADE2A86
:100DF800000EDD22010EDC6F4EEF07F0CC51D96EEC
:100E0800DA6ADECFF6FFDDCFF7FF0800F5506C0A8F
:100E1800D8A411EF07F013EF07F04EEF07F0CC510D
:100E2800D96EDA6ADECFCEF0DDCFCFF0010ECE2755
:100E3800000ECF23CEC0F6FFCFC0F7FF0800F55055
:100E48006C0AD8A42AEF07F02CEF07F04EEF07F052
:100E5800CC51D96EDA6ADECFCEF0DDCFCFF0020EFC
:100E6800CE27000ECF23CEC0F6FFCFC0F7FF080075
:100E7800F550730AD8A443EF07F045EF07F04EEF9B
:100E880007F0CC51D96EDA6A030EDE26000EDD2299
:100E9800FEEF06F0DC51D8B454EF07F056EF07F038
:100EA80075EF07F0CAC00AF0CBC00BF0CD51D96E70
:100EB800DA6ADFCFCEF0020EDE26DFCFCFF0000EEB
:100EC800DD22CEC0D9FFCFC0DAFFDECF0CF0DDCFF8
:100ED8000DF0B9EC2CF00AC0CAF00BC0CBF040EF13
:100EE80009F0CC51D96EDA6ADECFE6F0DDCFE7F053
:100EF800E6C0F6FFE7C0F7FF0800F5CFDDF091EF99
:100F080007F0E64BE72BC6EF07F06C0EDD6FC6EF78
:100F180007F0000EDD6FC6EF07F0DD51CE6FCF6B27
:100F2800CF51000AD8B49BEF07F08DEF07F0CE51F0
:100F3800410AD8B489EF07F0040AD8B489EF07F05A
:100F4800030AD8B489EF07F0010AD8B489EF07F08B
:100F58000B0AD8B485EF07F02D0AD8B489EF07F04B
:100F6800040AD8B489EF07F0030AD8B489EF07F068
:100F7800010AD8B489EF07F00B0AD8B485EF07F057
:100F88008DEF07F0E6C0F6FFE7C0F7FF0800F55061
:100F9800610AD8B4D2EF07F0D4EF07F06AEF08F08F
:100FA800E6C0F6FFE7C0F7FF0800F550410AD8B4DD
:100FB800E0EF07F0E2EF07F06AEF08F0E6C0F6FFAF
:100FC800E7C0F7FF0800F550650AD8B4EEEF07F060
:100FD800F0EF07F06AEF08F0E6C0F6FFE7C0F7FFAA
:100FE8000800F550450AD8B4FCEF07F0FEEF07F00B
:100FF8006AEF08F0E6C0F6FFE7C0F7FF0800F55013
:10100800660AD8B40AEF08F00CEF08F06AEF08F0A7
:10101800E6C0F6FFE7C0F7FF0800F550460AD8B467
:1010280018EF08F01AEF08F06AEF08F0E6C0F6FFCC
:10103800E7C0F7FF0800F550670AD8B426EF08F0B4
:1010480028EF08F06AEF08F0E6C0F6FFE7C0F7FF00
:101058000800F550470AD8A434EF08F036EF08F036
:10106800F6EF08F06AEF08F0CD51D96EDA6ADFCFF3
:10107800CEF0040EDE26DFCFCFF0000EDD22CEC08C
:10108800D9FFCFC0DAFFDECFDEF0DECFDFF0DECF74
:10109800E0F0DECFE1F07FEF08F0CD51D96EDA6AEB
:1010A800DFCFCEF0040EDE26DFCFCFF0000EDD223C
:1010B800CEC0D9FFCFC0DAFFDECFDEF0DECFDFF063
:1010C800DECFE0F0DECFE1F07FEF08F0DD51CE6F4C
:1010D800CF6BCF51000AD8B474EF08F07FEF08F057
:1010E800CE514C0AD8B451EF08F0200AD8B438EFE2
:1010F80008F07FEF08F0010EE625CE6F000EE7211D
:10110800CF6FCC51D96EDA6ACEC0DEFFCFC0DDFF1B
:10111800C4EF08F0CAC090F0CBC091F0DEC092F0E6
:10112800DFC093F0E0C094F0E1C095F0E6C0F6FFB0
:10113800E7C0F7FF0800F5CF96F04BEC10F090C031
:10114800CAF091C0CBF040EF09F0CAC090F0CBC014
:1011580091F0DEC092F0DFC093F0E0C094F0E1C0FF
:1011680095F0E6C0F6FFE7C0F7FF0800F5CF96F068
:1011780041EC09F090C0CAF091C0CBF040EF09F003
:10118800E6C0F6FFE7C0F7FF0800F550CE6FCF6B5B
:10119800CF51000AD8B4D3EF08F0F6EF08F0CE51DB
:1011A800410AD8B48EEF08F0040AD8B4A9EF08F0C1
:1011B800030AD8B4A9EF08F0010AD8B4A9EF08F0D7
:1011C800260AD8B48EEF08F0040AD8B4A9EF08F0BC
:1011D800030AD8B4A9EF08F0010AD8B4A9EF08F0B7
:1011E800F6EF08F0CC51D96EDA6ADECFF6FFDDCF24
:1011F800F7FF0800F550250AD8A405EF09F007EF16
:1012080009F01EEF09F0CC51D96EDA6ADE2A000E19
:10121800DD22000E026E250E016ECAC003F0CBC09F
:1012280004F0E9EC35F0000E0001CB6F010ECA6F37
:1012380040EF09F0CC51D96EDA6ADE2A000EDD22C1
:101248009DEF06F0CC51D96EDA6ADECFF6FFDDCF1E
:10125800F7FF0800F550016E026ACAC003F0CBC060
:1012680004F0E9EC35F00001CC51D96EDA6ADE2AD7
:10127800000EDD2217EF09F01200000E0001BB6F0F
:1012880092C0BCF093C0BDF094C0BEF095C0BFF052
:10129800BFBF53EF09F051EF09F067EF09F0010EF6
:1012A800BB6FBCC001F0BDC002F0BEC003F0BFC040
:1012B80004F0EFEC3BF001C0BCF002C0BDF003C08D
:1012C800BEF004C0BFF0000E0001C96F000EC86F69
:1012D800AAC1B1F0ABC1B2F0BB51D8A476EF09F006
:1012E80078EF09F080EF09F00101B0A57EEF09F071
:1012F80080EF09F097EF09F00001BB51D8A487EF00
:1013080009F089EF09F08FEF09F0000E986F2B0EA6
:10131800976F93EF09F0000E986F2D0E976F97C097
:10132800BBF0A1EF09F0B0A79CEF09F09EEF09F020
:10133800A1EF09F0200E0001BB6FBCC001F0BDC0D9
:1013480002F0BEC003F0BFC004F09FEC33F001040C
:101358000210D8A4B2EF09F0B4EF09F005EF0AF0D3
:101368000001BB51D8B4BBEF09F0BDEF09F0C6EFDF
:1013780009F0BBC020F3B107D8A0B207000EC96FAF
:10138800010EC86F96C07CF0BF0E7C261A0E7C60DA
:10139800D0EF09F0D2EF09F0E0EF09F0200EC825F0
:1013A800016E030EC921026EE50E036EFF0E046E78
:1013B800D3EC3BF0ECEF09F0200EC825016E030ECC
:1013C800C921026EED0E036EFF0E046ED3EC3BF0E6
:1013D8000001FD0EB127FF0EB22390C011F091C09D
:1013E80012F0200E136E030E146EB1C015F0B2C0C9
:1013F80016F00EEC37F011C090F012C091F04AEFE1
:1014080010F0BCC001F0BDC002F0BEC003F0BFC008
:1014180004F09FEC33F001500210D8A416EF0AF044
:1014280018EF0AF052EF0AF00001BB51D8B41FEFD1
:101438000AF021EF0AF02AEF0AF0BBC020F3B10747
:10144800D8A0B207000EC96F010EC86F96C07CF015
:10145800BF0E7C261A0E7C6034EF0AF036EF0AF0D5
:1014680044EF0AF0200EC825016E030EC921026E52
:10147800E90E036EFF0E046ED3EC3BF0ECEF09F0BF
:10148800200EC825016E030EC921026EF10E036EEF
:10149800FF0E046ED3EC3BF0ECEF09F0000E0001F8
:1014A800C46F000EC56F800EC66F3F0EC76F000E6B
:1014B800C16F000EC06FBCC001F0BDC002F0BEC05D
:1014C80003F0BFC004F0000E056E000E066E000E9D
:1014D800076E000E086EC3EC37F0D8B076EF0AF04E
:1014E80078EF0AF058EF0BF085EF0AF0ADC0C4F0C2
:1014F800AEC0C5F0AFC0C6F0B0C0C7F00001C04B69
:10150800C12BC4C03DF0C5C03EF0C6C03FF0C7C047
:1015180040F0000E416E000E426E200E436E410EEA
:10152800446E59EC1DF03DC0ADF03EC0AEF03FC07A
:10153800AFF040C0B0F00001AD51BC5D016EAE51DE
:10154800BD59026EAF51BE59036EB051BF59046EFA
:10155800DCEC3AF004BEBCEF0AF0045003100210B1
:1015680009E1020E015CD8A0BCEF0AF0BEEF0AF058
:101578007AEF0AF0ADC084F0AEC085F0AFC086F057
:10158800B0C087F0BCC088F0BDC089F0BEC08AF08A
:10159800BFC08BF01CEC33F00001D8A0D6EF0AF0E6
:1015A800D8EF0AF07AEF0AF0C451BC5D016EC5515C
:1015B800BD59026EC651BE59036EC751BF59046E5C
:1015C800DCEC3AF004BEF6EF0AF004500310021007
:1015D80007E1020E015CD8B0F4EF0AF0F6EF0AF06A
:1015E8003EEF0BF0C4C0BCF0C5C0BDF0C6C0BEF035
:1015F800C7C0BFF058EF0BF0C4C024F0C5C025F039
:10160800C6C026F0C7C027F0000E286E000E296E4F
:10161800200E2A6E410E2B6E6EEC1FF024C0C4F013
:1016280025C0C5F026C0C6F027C0C7F00001C00716
:10163800D8A0C107C451BC5D016EC551BD59026E29
:10164800C651BE59036EC751BF59046EDCEC3AF05F
:1016580004BE3CEF0BF004500310021007E1020E29
:10166800015CD8B03AEF0BF03CEF0BF03EEF0BF01B
:10167800F6EF0AF0BCC084F0BDC085F0BEC086F0AD
:10168800BFC087F0C4C088F0C5C089F0C6C08AF062
:10169800C7C08BF01CEC33F00001D8A056EF0BF05C
:1016A80058EF0BF000EF0BF096C07CF0BF0E7C26D5
:1016B800190E7C6462EF0BF064EF0BF06AEF0BF02D
:1016C80096C099F000019A6B73EF0BF0200E96C04C
:1016D8007CF07D6A7C100001996F7D509A6F99C0EB
:1016E800ACF0ACC0ABF0670EAC19D8A47EEF0BF031
:1016F80080EF0BF0A8EF0BF00101AC51AD11D8A4AD
:1017080088EF0BF08AEF0BF08EEF0BF0000EAD6F49
:10171800010EAC6FADBF9BEF0BF0AD5106E1AC0510
:10172800D8B099EF0BF09BEF0BF0A2EF0BF0000E87
:101738000001AA6F060EA96FB2EF0BF0ACC1A9F0B9
:10174800ADC1AAF0B2EF0BF00101ADBFAEEF0BF0E7
:10175800B0EF0BF09BEF0BF0A2EF0BF0670E000160
:10176800AC19D8A4BAEF0BF0BCEF0BF0E5EF0BF017
:10177800C1AFCAEF0BF0FC0EC05DFF0EC159D8A077
:10178800C8EF0BF0CAEF0BF0E3EF0BF0FF0EA92543
:101798007C6EFF0EAA217D6EC0517C5C7D50800A54
:1017A8007E6EC151800A7E58D8A0DDEF0BF0DFEFC6
:1017B8000BF0E3EF0BF0660EAB6FE5EF0BF0650E89
:1017C800AB6FA9C0A5F0AAC0A6F0670EAC19D8A443
:1017D800F0EF0BF0F2EF0BF002EF0CF0660EAB1926
:1017E800D8A4F9EF0BF0FBEF0BF004EF0CF0C1BF3E
:1017F80002EF0CF000EF0CF004EF0CF0A54BA62B59
:10180800660EAB19D8A40BEF0CF00DEF0CF02DEF12
:101818000CF0C1BF14EF0CF012EF0CF020EF0CF03D
:10182800000EC46F000EC56F800EC66F3F0EC76FE7
:10183800000EC16F000EC06F670EAC19D8B427EF49
:101848000CF029EF0CF02DEF0CF0C051A527C15179
:10185800A623000EC36F000EC26FBCC0B3F0BDC09C
:10186800B4F0BEC0B5F0BFC0B6F0C4C0ADF0C5C0DE
:10187800AEF0C6C0AFF0C7C0B0F0BEEF0CF0B3C05A
:1018880024F0B4C025F0B5C026F0B6C027F0C4C017
:1018980028F0C5C029F0C6C02AF0C7C02BF06EECEE
:1018A8001FF024C03DF025C03EF026C03FF027C001
:1018B80040F041EC27F03DC0B7F03EC0B8F03FC063
:1018C800B9F040C0BAF0B7C066F0B8C067F0B9C0A8
:1018D80068F0BAC069F099EC32F066C0A7F067C04A
:1018E800A8F0B3C074F0B4C075F0B5C076F0B6C057
:1018F80077F0B7C041F0B8C042F0B9C043F0BAC001
:1019080044F0C4C03DF0C5C03EF0C6C03FF0C7C0FB
:1019180040F059EC1DF03DC078F03EC079F03FC072
:101928007AF040C07BF054EC3BF074C0B3F075C063
:10193800B4F076C0B5F077C0B6F0C4C024F0C5C026
:1019480025F0C6C026F0C7C027F0000E286E000E8E
:10195800296E200E2A6E410E2B6E6EEC1FF024C0ED
:10196800C4F025C0C5F026C0C6F027C0C7F00001E6
:10197800C24BC32BA551C25DC351800A7C6EA651D0
:10198800800A7C58D8A0CBEF0CF0CDEF0CF043EFD9
:101998000CF0C4C03DF0C5C03EF0C6C03FF0C7C0A3
:1019A80040F0000E416E000E426EA00E436E400ED7
:1019B800446E59EC1DF03DC0B7F03EC0B8F03FC0D2
:1019C800B9F040C0BAF0B3C084F0B4C085F0B5C077
:1019D80086F0B6C087F0B7C088F0B8C089F0B9C043
:1019E8008AF0BAC08BF01CEC33F00001D8B0FFEFDE
:1019F8000CF001EF0DF00BEF0DF0000EB76F000EBD
:101A0800B86F000EB96F000EBA6F34EF0DF0B3C0A7
:101A180001F0B4C002F0B5C003F0B6C004F0B7C01E
:101A280005F0B8C006F0B9C007F0BAC008F0C3ECBA
:101A380037F0D8A022EF0DF024EF0DF034EF0DF0C1
:101A48000001A7B12AEF0DF02CEF0DF034EF0DF0E7
:101A5800000EB76F000EB86F000EB96F000EBA6FA8
:101A6800BCC056F0BDC057F0BEC058F0BFC059F05A
:101A7800B7C05AF0B8C05BF0B9C05CF0BAC05DF04E
:101A8800B3EC16F056C0B3F057C0B4F058C0B5F078
:101A980059C0B6F0B3C084F0B4C085F0B5C086F0C4
:101AA800B6C087F0000E416E000E426E200E436EE7
:101AB800410E446EADC03DF0AEC03EF0AFC03FF049
:101AC800B0C040F059EC1DF03DC088F03EC089F030
:101AD8003FC08AF040C08BF01CEC33F00001D8A066
:101AE80078EF0DF07AEF0DF0A2EF0DF0C04BC12B9F
:101AF800ADC03DF0AEC03EF0AFC03FF0B0C040F06A
:101B0800000E416E000E426E200E436E410E446E72
:101B180059EC1DF03DC0ADF03EC0AEF03FC0AFF097
:101B280040C0B0F0660E0001AB19D8A49EEF0DF0CE
:101B3800A0EF0DF0A2EF0DF0A54BA62BADC0C4F0A1
:101B4800AEC0C5F0AFC0C6F0B0C0C7F0650EAB19E7
:101B5800D8B4B1EF0DF0B3EF0DF0B9EF0DF0C0C090
:101B6800A3F0C1C0A4F0BDEF0DF0000EA46F000EED
:101B7800A36F000EA26F000EA16F000EA06F000EE3
:101B8800C36F000EC26FD5EF0EF0B3C024F0B4C01F
:101B980025F0B5C026F0B6C027F0C4C028F0C5C0EF
:101BA80029F0C6C02AF0C7C02BF06EEC1FF024C085
:101BB8003DF025C03EF026C03FF027C040F041EC84
:101BC80027F03DC0B7F03EC0B8F03FC0B9F040C004
:101BD800BAF0B7C066F0B8C067F0B9C068F0BAC06C
:101BE80069F099EC32F067BE05EF0EF0675007E137
:101BF8000A0E665CD8B003EF0EF005EF0EF015EF95
:101C08000EF0B7C066F0B8C067F0B9C068F0BAC0E7
:101C180069F099EC32F066C0A7F067C0A8F01AEF37
:101C28000EF0000E0001A86F090EA76F0001A75162
:101C3800A811D8A422EF0EF024EF0EF041EF0EF019
:101C4800670EAC19D8A42BEF0EF02DEF0EF041EF74
:101C58000EF0A4BF34EF0EF032EF0EF041EF0EF0AD
:101C68000101B0B93AEF0EF03CEF0EF041EF0EF083
:101C78000001A04BA12B89EF0EF00001A251D8A4BE
:101C880048EF0EF04AEF0EF072EF0EF0A4BF51EFDE
:101C98000EF04FEF0EF072EF0EF0200EC825D96E41
:101CA800030EC921DA6E2E0EDF6EC84BC92BB107A1
:101CB800D8A0B207010EA26F72EF0EF0200EC82551
:101CC800D96E030EC921DA6E300EDF6EC84BC92BF0
:101CD800B107D8A0B207A007D8A0A107A051A111A9
:101CE800D8A479EF0EF07BEF0EF062EF0EF0200E25
:101CF800C825D96E030EC921DA6EA751300FDF6EE1
:101D0800C84BC92BB107D8A0B207B3C074F0B4C090
:101D180075F0B5C076F0B6C077F0B7C041F0B8C07E
:101D280042F0B9C043F0BAC044F0C4C03DF0C5C0E9
:101D38003EF0C6C03FF0C7C040F059EC1DF03DC0B2
:101D480078F03EC079F03FC07AF040C07BF054ECA8
:101D58003BF074C0B3F075C0B4F076C0B5F077C08E
:101D6800B6F0C4C024F0C5C025F0C6C026F0C7C070
:101D780027F0000E286E000E296E200E2A6E410EE6
:101D88002B6E6EEC1FF024C0C4F025C0C5F026C031
:101D9800C6F027C0C7F00001A307D8A0A407C24B0C
:101DA800C32BA551C25DC351800A7C6EA651800A1F
:101DB8007C58D8B0E2EF0EF0E4EF0EF0F2EF0EF040
:101DC800C9BFF0EF0EF0C95109E14B0EC85DD8A0AC
:101DD800F0EF0EF0F2EF0EF0C9EF0DF0A251D8A41B
:101DE800F8EF0EF0FAEF0EF00DEF0FF00101B0A9C9
:101DF80000EF0FF002EF0FF00DEF0FF0200E0001D3
:101E0800C825D96E030EC921DA6E2E0EDF6EC84BB7
:101E1800C92B000E0001C36F4F0EC26F200EC225E2
:101E2800D96E030EC321DA6EDF6A650EAB19D8A42A
:101E380020EF0FF022EF0FF0BCEF0FF0000E9F6FB6
:101E4800C1BF2BEF0FF029EF0FF031EF0FF0010EAC
:101E58009F6FC06DC11FD8B0C12B000EAA6F020EB4
:101E6800A96F62EF0FF0C207D8A0C307200EC225E2
:101E7800D96E030EC321DA6EC0C001F0C1C002F0F2
:101E8800000E046E0A0E036E6BEC37F00150300F33
:101E9800DF6EC0C001F0C1C002F0000E046E0A0E71
:101EA800036E4EEC36F001C0C0F002C0C1F0000174
:101EB800A907D8A0AA07B107D8A0B207C051C11175
:101EC800D8A469EF0FF06BEF0FF037EF0FF0AABF50
:101ED80078EF0FF0AA5106E1A905D8B076EF0FF018
:101EE80078EF0FF037EF0FF0C207D8A0C3079F5164
:101EF800D8A481EF0FF083EF0FF089EF0FF0000EF9
:101F08009C6F2B0E9B6F8DEF0FF0000E9C6F2D0EAC
:101F18009B6F200EC225D96E030EC321DA6E9BC0BB
:101F2800DFFFB107D8A0B207C207D8A0C30796C081
:101F38007CF0BF0E7C26190E7C64A5EF0FF0A7EF8E
:101F48000FF0ADEF0FF0000E9E6F650E9D6FB1EFB5
:101F58000FF0000E9E6F450E9D6F200EC225D96EA4
:101F6800030EC321DA6E9DC0DFFFB107D8A0B20708
:101F7800200E7C6E030E7D6EC8517C5EC9517D5A61
:101F8800C2517C24016EC3517D20026E200E036E67
:101F9800030E046EC8C005F0C9C006F007EC3BF09C
:101FA8000001C851C25DC86FC951C359C96FBB513F
:101FB800D8A4E1EF0FF0E4EF0FF0010EE5EF0FF01A
:101FC800000EC26FC36B0101B0A3EDEF0FF0EFEF8E
:101FD8000FF01EEF10F0FFEF0FF0C807D8A0C907E9
:101FE800200EC825D96E030EC921DA6E300EDF6EB9
:101FF800B107D8A0B2070001B151C25DC351800A30
:102008007C6EB251800A7C58D8B00DEF10F00FEFFB
:1020180010F01EEF10F0C851C25DC351800A7C6EEB
:10202800C951800A7C58D8A01CEF10F01EEF10F0A0
:10203800F1EF0FF00001BB51D8B425EF10F027EFF6
:1020480010F032EF10F0C807D8A0C907200EC82535
:10205800D96E030EC921DA6EBBC0DFFFC251B15F72
:10206800C351B25B90C011F091C012F0200EC82588
:10207800136E030EC921146EB1C015F0B2C016F06C
:102088000EEC37F011C090F012C091F0120096C01B
:102098007CF0BF0E7C26190E7C6455EF10F058EFCB
:1020A80010F0010E59EF10F0000E0001966F000EAF
:1020B800BD6F92C0B9F093C0BAF094C0BBF095C0A0
:1020C800BCF0BCBF6CEF10F06AEF10F080EF10F0BE
:1020D800010EBD6FB9C001F0BAC002F0BBC003F079
:1020E800BCC004F0EFEC3BF001C0B9F002C0BAF09C
:1020F80003C0BBF004C0BCF0000E0001C76F000EA7
:10210800C66FAAC1B7F0ABC1B8F0BD51D8A48FEF64
:1021180010F091EF10F099EF10F00101B0A597EFD2
:1021280010F099EF10F0B0EF10F00001BD51D8A4F5
:10213800A0EF10F0A2EF10F0A8EF10F0000E9C6FC7
:102148002B0E9B6FACEF10F0000E9C6F2D0E9B6F4B
:102158009BC0BDF0BAEF10F0B0A7B5EF10F0B7EF25
:1021680010F0BAEF10F0200E0001BD6FB9C001F0F9
:10217800BAC002F0BBC003F0BCC004F09FEC33F05F
:1021880001040210D8A4CBEF10F0CDEF10F01AEF35
:1021980011F00001BD51D8B4D4EF10F0D6EF10F013
:1021A800DFEF10F0BDC020F3000EC76F010EC66F41
:1021B800B707D8A0B8079651D8B4E5EF10F0E7EF05
:1021C80010F0F5EF10F0200EC625016E030EC721A2
:1021D800026EE50E036EFF0E046ED3EC3BF001EFCA
:1021E80011F0200EC625016E030EC721026EED0EFA
:1021F800036EFF0E046ED3EC3BF00001FD0EB72713
:10220800FF0EB82390C011F091C012F0200E136E8B
:10221800030E146EB7C015F0B8C016F00EEC37F008
:1022280011C090F012C091F0B2EF16F0B9C001F0F1
:10223800BAC002F0BBC003F0BCC004F09FEC33F09E
:1022480001500210D8A42BEF11F02DEF11F063EF1D
:1022580011F00001BD51D8B434EF11F036EF11F090
:102268003FEF11F0BDC020F3000EC76F010EC66F1F
:10227800B707D8A0B8079651D8B445EF11F047EF83
:1022880011F055EF11F0200EC625016E030EC7217F
:10229800026EE90E036EFF0E046ED3EC3BF001EF05
:1022A80011F0200EC625016E030EC721026EF10E35
:1022B800036EFF0E046ED3EC3BF001EF11F0000E3D
:1022C8000001C06F000EC16F800EC26F3F0EC36F5A
:1022D800000EAE6F000EAD6FB9C001F0BAC002F0CB
:1022E800BBC003F0BCC004F0000E056E000E066E05
:1022F800000E076E000E086EC3EC37F0D8B087EFFB
:1023080011F089EF11F00EEF12F0A8EF11F0C0C034
:102318003DF0C1C03EF0C2C03FF0C3C040F0000E67
:10232800416E000E426E000E436E400E446E59EC34
:102338001DF03DC0C0F03EC0C1F03FC0C2F040C07B
:10234800C3F00001AD4BAE2BB9C084F0BAC085F024
:10235800BBC086F0BCC087F0000E416E000E426E16
:10236800000E436E400E446EC0C03DF0C1C03EF04A
:10237800C2C03FF0C3C040F059EC1DF03DC088F02A
:102388003EC089F03FC08AF040C08BF01CEC33F0AF
:102398000001D8B0D2EF11F0D4EF11F08BEF11F0AB
:1023A800F4EF11F0C0C024F0C1C025F0C2C026F07F
:1023B800C3C027F0000E286E000E296E000E2A6E8C
:1023C800400E2B6E6EEC1FF024C0C0F025C0C1F08B
:1023D80026C0C2F027C0C3F00001AD07D8A0AE07E1
:1023E800B9C084F0BAC085F0BBC086F0BCC087F025
:1023F800C0C088F0C1C089F0C2C08AF0C3C08BF0E9
:102408001CEC33F00001D8A00CEF12F00EEF12F024
:10241800D6EF11F00101ADBF14EF12F016EF12F074
:102428001CEF12F0ACC1A8F0ADC1A9F021EF12F079
:10243800000E0001A96F4A0EA86F010E0001A82521
:10244800A46F000EA921A56F000EC56F000EC46F02
:10245800B9C0AFF0BAC0B0F0BBC0B1F0BCC0B2F008
:10246800C0C097F0C1C098F0C2C099F0C3C09AF03C
:10247800B9EF12F0AFC024F0B0C025F0B1C026F01B
:10248800B2C027F0C0C028F0C1C029F0C2C02AF0ED
:10249800C3C02BF06EEC1FF024C03DF025C03EF009
:1024A80026C03FF027C040F041EC27F03DC0B3F014
:1024B8003EC0B4F03FC0B5F040C0B6F0B3C066F05F
:1024C800B4C067F0B5C068F0B6C069F099EC32F0F6
:1024D80066C0BEF067C0BFF0AFC074F0B0C075F0A2
:1024E800B1C076F0B2C077F0C0C041F0C1C042F0D0
:1024F800C2C043F0C3C044F0B3C03DF0B4C03EF026
:10250800B5C03FF0B6C040F059EC1DF03DC078F0C2
:102518003EC079F03FC07AF040C07BF054EC3BF00D
:1025280074C0AFF075C0B0F076C0B1F077C0B2F04B
:10253800C0C024F0C1C025F0C2C026F0C3C027F037
:10254800000E286E000E296E800E2A6E410E2B6E2C
:102558006EEC1FF024C0C0F025C0C1F026C0C2F048
:1025680027C0C3F00001C44BC52BA451C45DC5519D
:10257800800A7C6EA551800A7C58D8A0C6EF12F05C
:10258800C8EF12F03EEF12F0C0C03DF0C1C03EF0FF
:10259800C2C03FF0C3C040F0000E416E000E426E54
:1025A800000E436E410E446E59EC1DF03DC0B3F071
:1025B8003EC0B4F03FC0B5F040C0B6F0AFC084F044
:1025C800B0C085F0B1C086F0B2C087F0B3C088F063
:1025D800B4C089F0B5C08AF0B6C08BF01CEC33F0FB
:1025E8000001D8B0FAEF12F0FCEF12F006EF13F08A
:1025F800000EB36F000EB46F000EB56F000EB66F0D
:102608002FEF13F0AFC001F0B0C002F0B1C003F07B
:10261800B2C004F0B3C005F0B4C006F0B5C007F00E
:10262800B6C008F0C3EC37F0D8A01DEF13F01FEFC9
:1026380013F02FEF13F00001BEB125EF13F027EFD1
:1026480013F02FEF13F0000EB36F000EB46F000EEF
:10265800B56F000EB66FB9C056F0BAC057F0BBC020
:1026680058F0BCC059F0B3C05AF0B4C05BF0B5C064
:102678005CF0B6C05DF0B3EC16F056C0AFF057C0D2
:10268800B0F058C0B1F059C0B2F097C0C0F098C0CF
:10269800C1F099C0C2F09AC0C3F0000E0001A76F44
:1026A800000EA66F000EAA6F000EAC6F000EAB6F87
:1026B800000EC56F000EC46FACEF14F0AFC024F06D
:1026C800B0C025F0B1C026F0B2C027F0C0C028F0D5
:1026D800C1C029F0C2C02AF0C3C02BF06EEC1FF0B5
:1026E80024C03DF025C03EF026C03FF027C040F092
:1026F80041EC27F03DC0B3F03EC0B4F03FC0B5F0A8
:1027080040C0B6F0B3C066F0B4C067F0B5C068F0BA
:10271800B6C069F099EC32F066C0BEF067C0BFF091
:102728000001BE51BF11D8A49CEF13F09EEF13F027
:10273800B2EF13F0A7BFA5EF13F0A3EF13F0B2EFBA
:1027480013F00101B0B9ABEF13F0ADEF13F0B2EF36
:1027580013F00001AB4BAC2B3DEF14F00001AA5174
:10276800D8A4B9EF13F0BBEF13F0E3EF13F0A7BF52
:10277800C2EF13F0C0EF13F0E3EF13F0200EC625FD
:10278800D96E030EC721DA6E2E0EDF6EC64BC72B2D
:10279800B707D8A0B807010EAA6FE3EF13F0200E11
:1027A800C625D96E030EC721DA6E300EDF6EC64B12
:1027B800C72BB707D8A0B807AB07D8A0AC07AB5151
:1027C800AC11D8A4EAEF13F0ECEF13F0D3EF13F049
:1027D800BFBFF8EF13F0BF5109E10A0EBE5DD8A0E4
:1027E800F8EF13F0FAEF13F002EF14F0570EBE25CE
:1027F800BE6F000EBF21BF6F08EF14F0300EBE256C
:10280800BE6F000EBF21BF6F9651D8B40EEF14F003
:1028180010EF14F030EF14F0BEC07CF0200E7C12E4
:102828009F0E7C261A0E7C601CEF14F01EEF14F02D
:1028380030EF14F0BEC07CF09F0E7C26190E7C642D
:1028480028EF14F02AEF14F02CEF14F030EF14F006
:102858005F0EBE15BE6FBF6B200EC625D96E030E68
:10286800C721DA6EBEC0DFFFC64BC72BB707D8A09B
:10287800B807AFC074F0B0C075F0B1C076F0B2C0A0
:1028880077F0C0C041F0C1C042F0C2C043F0C3C03D
:1028980044F0B3C03DF0B4C03EF0B5C03FF0B6C0A0
:1028A80040F059EC1DF03DC078F03EC079F03FC0D3
:1028B8007AF040C07BF054EC3BF074C0AFF075C0C8
:1028C800B0F076C0B1F077C0B2F0C0C024F0C1C09B
:1028D80025F0C2C026F0C3C027F0000E286E000EF7
:1028E800296E800E2A6E410E2B6E6EEC1FF024C0EE
:1028F800C0F025C0C1F026C0C2F027C0C3F0000157
:10290800A607D8A0A707C44BC52B0101ADBF91EFFF
:1029180014F08FEF14F0ACEF14F0AFC001F0B0C0BA
:1029280002F0B1C003F0B2C004F0000E056E000E54
:10293800066E000E076E000E086EC3EC37F0D8A0C6
:10294800A8EF14F0AAEF14F0ACEF14F0CAEF14F0EB
:102958000001A451C45DC551800A7C6EA551800A4E
:102968007C58D8B0BAEF14F0BCEF14F0CAEF14F0EA
:10297800C7BFC8EF14F0C75109E14B0EC65DD8A018
:10298800C8EF14F0CAEF14F062EF13F00001AA5177
:10299800D8A4D1EF14F0D3EF14F01AEF15F0AB511F
:1029A800AC11D8B4DAEF14F0DCEF14F01AEF15F02C
:1029B8000101ADBFE8EF14F0AD5108E1AC05D8A0B6
:1029C800E8EF14F0EAEF14F01AEF15F00001C7BFB2
:1029D800F9EF14F0C75107E14B0EC65DD8B0F7EF19
:1029E80014F0F9EF14F01AEF15F0010EAA6F200E8B
:1029F800C625D96E030EC721DA6E2E0EDF6EC64BC2
:102A0800C72BB707D8A0B8071AEF15F0200EC625B0
:102A1800D96E030EC721DA6E300EDF6EC64BC72B98
:102A2800B707D8A0B807AB07D8A0AC070001AB51CF
:102A3800AC11D8B422EF15F024EF15F032EF15F0F1
:102A4800C7BF30EF15F0C75109E14B0EC65DD8A0DE
:102A580030EF15F032EF15F00AEF15F0AA51D8A4AF
:102A680038EF15F03AEF15F04DEF15F00101B0A968
:102A780040EF15F042EF15F04DEF15F0200E000174
:102A8800C625D96E030EC721DA6E2E0EDF6EC64B31
:102A9800C72B200E0001C625D96E030EC721DA6E9A
:102AA800DF6A000EC56F4F0EC46F200EC425D96EA5
:102AB800030EC521DA6EDF6A000EA36FAEBF69EFA1
:102AC80015F067EF15F06FEF15F0010EA36FAD6D00
:102AD800AE1FD8B0AE2B000EA96F010EA86FA0EFE5
:102AE80015F0C407D8A0C507200EC425D96E030E5B
:102AF800C521DA6EADC001F0AEC002F0000E046E62
:102B08000A0E036E6BEC37F00150300FDF6EADC06C
:102B180001F0AEC002F0000E046E0A0E036E4EEC19
:102B280036F001C0ADF002C0AEF00001A807D8A091
:102B3800A907B707D8A0B807AD51AE11D8A4A7EF19
:102B480015F0A9EF15F075EF15F0A9BFB6EF15F060
:102B5800A95106E1A805D8B0B4EF15F0B6EF15F005
:102B680075EF15F0C407D8A0C507A351D8A4BFEFC7
:102B780015F0C1EF15F0C7EF15F0000E9E6F2B0E84
:102B88009D6FCBEF15F0000E9E6F2D0E9D6F200EE2
:102B9800C425D96E030EC521DA6E9DC0DFFFB707C5
:102BA800D8A0B807C407D8A0C5079651D8A4DFEFA6
:102BB80015F0E1EF15F0E7EF15F0000EA06F700EBD
:102BC8009F6FEBEF15F0000EA06F500E9F6F200E59
:102BD800C425D96E030EC521DA6E9FC0DFFFB70783
:102BE800D8A0B807200E7C6E030E7D6EC6517C5EA1
:102BF800C7517D5AC4517C24016EC5517D20026E97
:102C0800200E036E030E046EC6C005F0C7C006F0A2
:102C180007EC3BF00001C651C45DC66FC751C559EA
:102C2800C76FBD51D8A41BEF16F01DEF16F023EFA8
:102C380016F0000EC56F020EC46F27EF16F0000ED7
:102C4800C56F030EC46F0101B0A32DEF16F02FEF6F
:102C580016F05EEF16F03FEF16F0C607D8A0C707CC
:102C6800200EC625D96E030EC721DA6E300EDF6E30
:102C7800B707D8A0B8070001B751C45DC551800A8D
:102C88007C6EB851800A7C58D8B04DEF16F04FEFE3
:102C980016F05EEF16F0C651C45DC551800A7C6E11
:102CA800C751800A7C58D8A05CEF16F05EEF16F08A
:102CB80031EF16F000019651D8A465EF16F067EFD2
:102CC80016F06DEF16F0000EA26F780EA16F71EF7F
:102CD80016F0000EA26F580EA16FC607D8A0C7073E
:102CE800200EC625D96E030EC721DA6EA1C0DFFFFC
:102CF800C607D8A0C707200EC625D96E030EC72160
:102D0800DA6E300EDF6EBD51D8B48DEF16F08FEF4E
:102D180016F09AEF16F0C607D8A0C707200EC625EA
:102D2800D96E030EC721DA6EBDC0DFFFC451B75F8D
:102D3800C551B85B90C011F091C012F0200EC625A5
:102D4800136E030EC721146EB7C015F0B8C016F085
:102D58000EEC37F011C090F012C091F012005950EB
:102D6800800B626E59505924646E58AEBEEF16F04F
:102D7800C0EF16F0C1EF16F064806450D8B4C7EF06
:102D880016F0C9EF16F0DEEF16F06428D8A4CFEFDE
:102D980016F0D1EF16F0D9EF16F0000E566E000EB1
:102DA800576E000E586E000E596E588E000E596EF2
:102DB800E6EF16F0000E566E000E576E000E586EB7
:102DC800000E596E5D50800B636E62506318D8B464
:102DD800F0EF16F0F2EF16F0F3EF16F0628C5D509C
:102DE8005D24636E5CAEFBEF16F0FDEF16F0FEEFB0
:102DF80016F063806350D8B404EF17F006EF17F0AD
:102E08001BEF17F06328D8A40CEF17F00EEF17F09C
:102E180016EF17F0000E5A6E000E5B6E000E5C6E19
:102E2800000E5D6E5C8E000E5D6E23EF17F0000ED7
:102E38005A6E000E5B6E000E5C6E000E5D6E645086
:102E4800635CD8B02AEF17F02CEF17F053EF17F0A8
:102E580062AC31EF17F033EF17F035EF17F0800E53
:102E6800621A64C065F063C064F065C063F056C060
:102E780065F05AC056F065C05AF057C065F05BC09F
:102E880057F065C05BF058C065F05CC058F065C08D
:102E98005CF059C065F05DC059F065C05DF0000E8A
:102EA800656E645063C05EF05F6A5E5E000E5F5AD6
:102EB8005FBE68EF17F05F5009E11A0E5E5CD8A09C
:102EC80068EF17F06AEF17F0A1EF17F05650571098
:102ED80058105910D8A473EF17F076EF17F0010EB9
:102EE80077EF17F0000E656E000E566E000E576EE7
:102EF800000E586E000E596E63C064F0AAEF17F00A
:102F080065A089EF17F08BEF17F091EF17F0D890C5
:102F180065300109656E93EF17F0D890653256A0B9
:102F280098EF17F09AEF17F09BEF17F0658E59346A
:102F38005932583257325632642A6350645CD8A0EA
:102F4800A8EF17F0AAEF17F084EF17F062BCAFEF05
:102F580017F0B1EF17F0F1EF17F06450D8A4B7EFFE
:102F680017F0B9EF17F0C3EF17F0000E566E000E0A
:102F7800576E000E586E000E596E12EF19F05A5027
:102F880056265B5057225C5058225D50592259A052
:102F9800D0EF17F0D2EF17F07EEF18F065A0D7EF5B
:102FA80017F0D9EF17F0DFEF17F0D8906530010967
:102FB800656EE1EF17F0D890653256A0E6EF17F08E
:102FC800E8EF17F0E9EF17F0658E593459325832A7
:102FD80057325632642A7EEF18F05A50565C5B50CE
:102FE80057585C5058585950800A5E6E5D50800A98
:102FF8005E58D8B002EF18F004EF18F02FEF18F071
:1030080056505A5C5E6E57505B585F6E58505C580D
:10301800606E59505D58616EFF0E5E24566EFF0E4D
:103028005F20576EFF0E6020586EFF0E6120596EAC
:10303800800E621A656C6550D8A425EF18F027EF4A
:1030480018F037EF18F0010E5626000E57225822B6
:10305800592237EF18F05A50565E5B50575A5C5059
:10306800585A5D50595A5650571058105910D8A4EC
:1030780040EF18F042EF18F077EF18F06550D8A439
:1030880048EF18F04AEF18F077EF18F0000E566E78
:10309800000E576E000E586E000E596E12EF19F0A2
:1030A800D890563657365836593665AE5EEF18F012
:1030B80060EF18F061EF18F0568065A066EF18F021
:1030C80068EF18F06CEF18F0D88065366EEF18F0DE
:1030D800D89065366450D8B474EF18F076EF18F0CD
:1030E80077EF18F0640658AE7CEF18F07EEF18F012
:1030F80054EF18F0000E636E65AE85EF18F087EF99
:1031080018F09FEF18F065C05EF07F0E5E16D8B419
:1031180090EF18F092EF18F096EF18F0010E636E2A
:103128009FEF18F056A09BEF18F09DEF18F09FEF57
:1031380018F092EF18F06350D8B4A5EF18F0A7EF85
:1031480018F0D2EF18F0010E5626000E572258221A
:10315800592259A0B2EF18F0B4EF18F0D2EF18F0D6
:1031680056C05EF057C05FF058C060F059C061F0BB
:103178006134613260325F325E325EC056F05FC0E9
:1031880057F060C058F061C059F06428D8B4CFEF48
:1031980018F0D1EF18F0D2EF18F0642A6428D8B4E8
:1031A800D8EF18F0DAEF18F0E2EF18F06450D8A46E
:1031B800E0EF18F0E2EF18F0F4EF18F0000E566E9A
:1031C800000E576E000E586E000E596E6450D8A44B
:1031D800F0EF18F0F2EF18F0F4EF18F0000E626E4E
:1031E80064A0F9EF18F0FBEF18F0FEEF18F0588E16
:1031F800FFEF18F0589ED8906430596E62AE07EF12
:1032080019F009EF19F00AEF19F0598E56C056F067
:1032180057C057F058C058F059C059F01200000E66
:103228000101B36F010EB3651CEF19F01EEF19F021
:1032380020EF19F01EEF1AF0000E286E500E296EBE
:10324800C30E2A6E470E2B6EB351040D200EF324C5
:10325800D96E010EF420DA6EDECF01F0DECF02F077
:10326800DECF03F0DECF04F0EFEC3BF001C024F03A
:1032780002C025F003C026F004C027F06EEC1FF052
:1032880024C098F025C099F026C09AF027C09BF07A
:1032980098C066F099C067F09AC068F09BC069F062
:1032A8001EEC34F066C078F067C079F068C07AF038
:1032B80069C07BF0000E746E000E756E800E766E1F
:1032C8003F0E776E54EC3BF074C09CF075C09DF0D7
:1032D80076C09EF077C09FF0000E246E000E256E1B
:1032E800800E266E3F0E276E9CC028F09DC029F0E8
:1032F8009EC02AF09FC02BF06EEC1FF00101B35165
:10330800040D500EF324D96E010EF420DA6E24C099
:10331800DEFF25C0DEFF26C0DEFF27C0DEFFB3517B
:10332800040D300EF324D96E010EF420DA6EDECFD0
:1033380084F0DECF85F0DECF86F0DECF87F0B351A4
:10334800040D500EF324D96E010EF420DA6EDECF90
:1033580088F0DECF89F0DECF8AF0DECF8BF01CEC70
:1033680033F00001D8B0BBEF19F0BDEF19F0D6EF7C
:1033780019F00101B351040D500EF324D96E010E5A
:10338800F420DA6EB351040D300EF324E16E010E11
:10339800F420E26EDECFE6FFDECFE6FFDECFE6FF0B
:1033A800DECFE6FF0101B351040D500EF324D96EB0
:1033B800010EF420DA6EDECF84F0DECF85F0DECFAA
:1033C80086F0DECF87F0B351040D280EF324D96EB2
:1033D800010EF420DA6EDECF88F0DECF89F0DECF82
:1033E8008AF0DECF8BF01CEC33F00001D8B0FFEF91
:1033F80019F001EF1AF01AEF1AF00101B351040D98
:10340800500EF324D96E010EF420DA6EB351040D78
:10341800280EF324E16E010EF420E26EDECFE6FF03
:10342800DECFE6FFDECFE6FFDECFE6FF0101B32BFE
:1034380016EF19F0A0B123EF1AF025EF1AF03FEFBD
:103448001BF0000E0001A36F000EA26F500E906FCC
:10345800010E916FD890A235D96EA335DA6ED89047
:10346800D936DA369051D9269151DA22A0C192F094
:10347800A1C193F0A2C194F0A3C195F0D89095335F
:103488009433933392331F0E9217000E9317D890EC
:1034980092379337D89092379337D890923793379B
:1034A800000E9225966F040E9321976FD890A2353F
:1034B800E16EA335E26ED890E136E2369651E12608
:1034C8009751E222DECFE6FFDECFE6FFDECFE6FF52
:1034D800DECFE6FF480E906F010E916FD890A235AF
:1034E800D96EA335DA6ED890D936DA369051D92606
:1034F8009151DA22000EDE6E000EDE6E000EDE6ED8
:10350800000EDD6E000EA16F000EA06F480E906FCA
:10351800010E916FD890A235D96EA335DA6ED89086
:10352800D936DA369051D9269151DA22DECF56F0C3
:10353800DECF57F0DECF58F0DECF59F0A0C092F0C2
:10354800A1C093F0D89092379337D8909237933799
:10355800D89092379337000E9225946F040E9321DA
:10356800956FD890A235D96EA335DA6ED890D93632
:10357800DA369451D9269551DA22DECF5AF0DECFC9
:103588005BF0DECF5CF0DECF5DF0B3EC16F0480EFA
:103598000001966F010E976FD890A235D96EA335AA
:1035A800DA6ED890D936DA369651D9269751DA227A
:1035B80056C0DEFF57C0DEFF58C0DEFF59C0DEFF31
:1035C800A04BA12BA1BFF2EF1AF0A15109E1200EE7
:1035D800A05DD8A0F2EF1AF0F4EF1AF08AEF1AF013
:1035E800480E906F010E916FD890A235D96EA33511
:1035F800DA6ED890D936DA369051D9269151DA2236
:10360800DECF24F0DECF25F0DECF26F0DECF27F0A8
:10361800000E286E000E296E000E2A6E420E2B6ECA
:103628006EEC1FF0480E0001926F010E936FD89058
:10363800A235D96EA335DA6ED890D936DA369251DA
:10364800D9269351DA2224C0DEFF25C0DEFF26C02A
:10365800DEFF27C0DEFFA24BA32BA3BF3DEF1BF06D
:10366800A35109E1020EA25DD8A03DEF1BF03FEF88
:103678001BF02AEF1AF01200000E5A6E000E5B6E55
:10368800800E5C6EBF0E5D6E2CC128F02DC129F036
:103698002EC12AF02FC12BF034C124F035C125F0FA
:1036A80036C126F037C127F06EEC1FF024C056F063
:1036B80025C057F026C058F027C059F0B3EC16F0D3
:1036C80056C090F057C091F058C092F059C093F08E
:1036D800000E5A6E000E5B6E800E5C6EBF0E5D6E45
:1036E80028C128F029C129F02AC12AF02BC12BF0C2
:1036F80030C124F031C125F032C126F033C127F0A2
:103708006EEC1FF024C056F025C057F026C058F0C4
:1037180027C059F0B3EC16F056C094F057C095F096
:1037280058C096F059C097F090C024F091C025F089
:1037380092C026F093C027F094C028F095C029F0D5
:1037480096C02AF097C02BF06EEC1FF024C0B8F199
:1037580025C0B9F126C0BAF127C0BBF1FD0E416EF4
:10376800F60E426EA50E436E400E446EB8C13DF093
:10377800B9C13EF0BAC13FF0BBC140F059EC1DF0F1
:103788003DC098F03EC099F03FC09AF040C09BF011
:103798004F0E416E1E0E426EB60E436E3E0E446EC6
:1037A800B8C13DF0B9C13EF0BAC13FF0BBC140F06D
:1037B80059EC1DF03DC09CF03EC09DF03FC09EF00E
:1037C80040C09FF0B8C141F0B9C142F0BAC143F05E
:1037D800BBC144F09CC03DF09DC03EF09EC03FF090
:1037E8009FC040F059EC1DF03DC0A0F03EC0A1F0D4
:1037F8003FC0A2F040C0A3F0B8C141F0B9C142F047
:10380800BAC143F0BBC144F098C03DF099C03EF046
:103818009AC03FF09BC040F059EC1DF03DC078F0D5
:103828003EC079F03FC07AF040C07BF0B8C141F0AB
:10383800B9C142F0BAC143F0BBC144F0A0C03DF0E9
:10384800A1C03EF0A2C03FF0A3C040F059EC1DF06B
:103858003DC074F03EC075F03FC076F040C077F0D0
:1038680054EC3BF074C0A4F075C0A5F076C0A6F087
:1038780077C0A7F06A0E416EBC0E426E920E436E80
:10388800410E446EB8C13DF0B9C13EF0BAC13FF037
:10389800BBC140F059EC1DF03DC078F03EC079F056
:1038A8003FC07AF040C07BF0A4C074F0A5C075F0AA
:1038B800A6C076F0A7C077F054EC3BF074C0A8F02F
:1038C80075C0A9F076C0AAF077C0ABF0A8C056F0D2
:1038D800A9C057F0AAC058F0ABC059F0120E5A6EE2
:1038E800C30E5B6ED80E5C6E420E5D6EB3EC16F0C6
:1038F800030E01019C157C6E000E9D157D6ED890FF
:103908007C367D36D8907C367D36380E7C24D96E50
:10391800010E7D20DA6E56C0DEFF57C0DEFF58C0AC
:10392800DEFF59C0DEFF000EA46F000EA56F000E6B
:10393800A66F000EA76F000E0001AD6F000EAC6FF2
:10394800A4C156F0A5C157F0A6C158F0A7C159F0B7
:10395800380E7C6E010E7D6ED890AC35D96EAD35C3
:10396800DA6ED890D936DA367C50D9267D50DA22EC
:10397800DECF5AF0DECF5BF0DECF5CF0DECF5DF05D
:10398800B3EC16F056C0A4F157C0A5F158C0A6F183
:1039980059C0A7F10001AC4BAD2BADBFDDEF1CF05A
:1039A800AD5109E1040EAC5DD8A0DDEF1CF0DFEFEE
:1039B8001CF0A4EF1CF0A4C124F0A5C125F0A6C1F9
:1039C80026F0A7C127F0000E286E000E296E800E83
:1039D8002A6E400E2B6E6EEC1FF024C0A4F125C099
:1039E800A5F126C0A6F127C0A7F1000E0001846F3B
:1039F800000E856F800E866F3F0E876FA4C178F02A
:103A0800A5C179F0A6C17AF0A7C17BF00101B65132
:103A1800166E176A186A196A010E06EC2BF016C0A2
:103A280074F017C075F018C076F019C077F054EC30
:103A38003BF074C080F075C081F076C082F077C02A
:103A480083F02FEC3BF080C088F081C089F082C001
:103A58008AF083C08BF01CEC33F00001D8B037EF4C
:103A68001DF039EF1DF058EF1DF0000E5A6E000ED4
:103A78005B6E000E5C6E3F0E5D6EA4C156F0A5C174
:103A880057F0A6C158F0A7C159F0B3EC16F056C0CC
:103A980066F057C067F058C068F059C069F099ECF3
:103AA80032F066500101B66F12004050800B496E2B
:103AB800405040244F6E3FAE64EF1DF066EF1DF09E
:103AC80067EF1DF04F804F50D8B46DEF1DF06FEFCA
:103AD8001DF082EF1DF04F28D8A475EF1DF077EF89
:103AE8001DF07FEF1DF0000E3D6E000E3E6E000EC5
:103AF8003F6E000E406E3F8E8AEF1DF0000E3D6E49
:103B0800000E3E6E000E3F6E000E406E4450800B5D
:103B1800491A445044244E6E43AE95EF1DF097EF7A
:103B28001DF098EF1DF04E804E50D8B49EEF1DF05A
:103B3800A0EF1DF0B3EF1DF04E28D8A4A6EF1DF09E
:103B4800A8EF1DF0B0EF1DF0000E416E000E426EA2
:103B5800000E436E000E446E438EBBEF1DF0000E48
:103B6800416E000E426E000E436E000E446E4E50C3
:103B7800D8B4C1EF1DF0C3EF1DF0CBEF1DF04F50CF
:103B8800D8A4C9EF1DF0CBEF1DF0D5EF1DF0000E46
:103B98003D6E000E3E6E000E3F6E000E406E6DEFE5
:103BA8001FF043503D02F3CF54F0F4CF55F054507A
:103BB8004A6E4B6A4C6A4D6A5550506E516A526A49
:103BC800536A42503E02F3CF54F0F4CF55F05450AC
:103BD8004A26000E4B224C224D2255505026000EEC
:103BE80051225222532241503F02F3CF54F0F4CFD6
:103BF80055F054504A26000E4B224C224D22555067
:103C08005026000E5122522253224CC04DF04BC078
:103C18004CF04AC04BF04A6A41503E02F3CF54F090
:103C2800F4CF55F054504A2655504B22000E4C22E2
:103C3800000E4D2242503D02F3CF54F0F4CF55F020
:103C480054504A2655504B22000E4C22000E4D224D
:103C58004CC04DF04BC04CF04AC04BF04A6A415042
:103C68003D02F3CF54F0F4CF55F054504A26555046
:103C78004B22000E4C22000E4D2243503E02F3CF41
:103C880054F0F4CF55F05450502655505122000EA0
:103C98005222000E532242503F02F3CF54F0F4CF89
:103CA80055F05450502655505122000E5222000E05
:103CB800532243503F02F3CF54F0F4CF55F0545001
:103CC800456E5550466E476A486A47C048F046C038
:103CD80047F045C046F0456A4550502646505122A7
:103CE80047505222485053224AC045F04BC046F034
:103CF8004CC047F04DC048F0190E88EF1EF0D89020
:103D08004832473246324532E82E83EF1EF045509E
:103D180050264650512247505222485053224CC0F8
:103D28004DF04BC04CF04AC04BF04A6A4E504FC061
:103D380045F0466A4526000E4622820E4524546EFA
:103D4800FF0E4620556EBEEF1EF0D8905036513605
:103D5800523653364DAEB3EF1EF0B5EF1EF0B6EF48
:103D68001EF05080D8904A364B364C364D365406A5
:103D7800D8A0550652AEC3EF1EF0C5EF1EF0A9EF4E
:103D88001EF0000E4E6E4DAECCEF1EF0CEEF1EF0C4
:103D9800F2EF1EF0FF0E4A14456EFF0E4B14466EEE
:103DA800FF0E4C14476E7F0E4D14486E455046105A
:103DB80047104810D8B4E3EF1EF0E5EF1EF0E9EF26
:103DC8001EF0010E4E6EF2EF1EF050A0EEEF1EF048
:103DD800F0EF1EF0F2EF1EF0E5EF1EF04E50D8B4F3
:103DE800F8EF1EF0FAEF1EF01EEF1FF0010E50263E
:103DF800000E51225222532253A005EF1FF007EF65
:103E08001FF01EEF1FF050C045F051C046F052C0E1
:103E180047F053C048F048344832473246324532BA
:103E280045C050F046C051F047C052F048C053F06A
:103E3800544A552A55BE29EF1FF0555008E1542819
:103E4800D8A029EF1FF02BEF1FF035EF1FF0000E61
:103E5800506E000E516E800E526E7F0E536E63EFE1
:103E68001FF055BE42EF1FF0555006E15404D8B07C
:103E780040EF1FF042EF1FF04EEF1FF0000E506EA4
:103E8800000E516E000E526E000E536E000E496EFB
:103E980063EF1FF054C04FF0FF0E5016FF0E51167F
:103EA8007F0E5216000E53164FA05DEF1FF05FEF06
:103EB8001FF060EF1FF0528ED8904F30536E49506C
:103EC800531250C03DF051C03EF052C03FF053C0B5
:103ED80040F012002750800B346E275027243B6E89
:103EE80026AE79EF1FF07BEF1FF07CEF1FF03B80D1
:103EF8003B50D8B482EF1FF084EF1FF099EF1FF00A
:103F08003B28D8A48AEF1FF08CEF1FF094EF1FF026
:103F1800000E246E000E256E000E266E000E276E13
:103F2800268E000E276EA1EF1FF0000E246E000EE5
:103F3800256E000E266E000E276E2B50800B341A4D
:103F48002B502B243C6E2AAEACEF1FF0AEEF1FF0C7
:103F5800AFEF1FF03C803C50D8B4B5EF1FF0B7EF7F
:103F68001FF0CCEF1FF03C28D8A4BDEF1FF0BFEF27
:103F78001FF0C7EF1FF0000E286E000E296E000E0E
:103F88002A6E000E2B6E2A8E000E2B6ED4EF1FF0B9
:103F9800000E286E000E296E000E2A6E000E2B6E83
:103FA800285029102A102B10D8A4DDEF1FF0DFEFBE
:103FB8001FF0F7EF1FF0000E246E000E256E000EA6
:103FC800266E000E276E800E26127F0E27123450A2
:103FD800271224C024F025C025F026C026F027C0CB
:103FE80027F03AEF21F03B50D8A4FDEF1FF0FFEF88
:103FF8001FF009EF20F0000E246E000E256E000E53
:10400800266E000E276E3AEF21F03C503BC02CF094
:104018002D6A2C5E000E2D5A7F0E2C24356E000E54
:104028002D20366E24C030F025C031F026C032F085
:1040380027C033F0000E246E000E256E000E266E8B
:10404800000E276E000E376E000E386E000E396EA9
:10405800000E3A6E000E3C6E6AEF20F03C50D8B469
:1040680038EF20F03AEF20F051EF20F0D8903036BA
:10407800313632363336D89024362536263627362A
:104088003AAE49EF20F04BEF20F04CEF20F02480BF
:10409800D8903736383639363A362850305C295079
:1040A80031582A5032582B503358D8A05EEF20F0A0
:1040B80060EF20F069EF20F03A8C2850305E2950EC
:1040C800315A2A50325A2B50335A3C2A190E3C6422
:1040D80070EF20F072EF20F032EF20F03050311006
:1040E80032103310D8B47BEF20F07DEF20F095EF3D
:1040F80020F0378095EF20F0D890243625362636E4
:1041080027363AAE8AEF20F08CEF20F08DEF20F0C2
:104118002480D8903736383639363A363506D8A01E
:10412800360626AE9AEF20F09CEF20F080EF20F0C4
:10413800000E3C6E3AAEA3EF20F0A5EF20F0C9EFD9
:1041480020F0FF0E37142C6EFF0E38142D6EFF0E64
:1041580039142E6E7F0E3A142F6E2C502D102E10FF
:104168002F10D8B4BAEF20F0BCEF20F0C0EF20F049
:10417800010E3C6EC9EF20F024A0C5EF20F0C7EF78
:1041880020F0C9EF20F0BCEF20F03C50D8B4CFEFBE
:1041980020F0D1EF20F0F5EF20F0010E2426000EDC
:1041A80025222622272227A0DCEF20F0DEEF20F0B0
:1041B800F5EF20F024C02CF025C02DF026C02EF0FD
:1041C80027C02FF02F342F322E322D322C322CC014
:1041D80024F02DC025F02EC026F02FC027F0354A38
:1041E800362A36BE00EF21F0365008E13528D8A02F
:1041F80000EF21F002EF21F00DEF21F0000E366EF6
:104208003568000E246E000E256E000E266E000E18
:10421800276E36BE1AEF21F0365006E13504D8B0C5
:1042280018EF21F01AEF21F028EF21F0000E366E7A
:10423800000E356E000E246E000E256E000E266EE2
:10424800000E276E000E346E35C03BF03BA02FEFFA
:1042580021F031EF21F034EF21F0268E35EF21F0F7
:10426800269ED8903B30276EEBEF1FF0120020C13E
:1042780098F121C199F122C19AF123C19BF1000E55
:104288000101B36F010EB3654CEF21F04EEF21F041
:1042980050EF21F081EF22F085EC31F00101B351AC
:1042A800B0EC3AF0B7EC39F001C090F102C091F1EE
:1042B80003C092F104C093F10101B351040D600EE3
:1042C800F324D96E010EF420DA6EDE6ADE6ADE6A45
:1042D800DD6ACAEF21F081A074EF21F076EF21F0BA
:1042E800BDEF21F0A0C10DF0A1C10EF0A2C10FF0E9
:1042F800A3C110F0030E116E000E126E000E136EA5
:10430800000E146EFBEC38F0D8900D360E36D890AF
:104318000D360E36D8900D360E360101B351040D08
:10432800000EF3240001906F010EF420916F0D50E0
:104338009025D96E0E509121DA6EB7EC39F0010153
:104348009051015C166E91510258176E92510358A4
:10435800186E93510458196E000E06EC2BF016C017
:10436800DEFF17C0DEFF18C0DEFF19C0DEFFE2EF78
:1043780021F0B351040D600EF324D96E010EF42020
:10438800DA6EDE2A000EDE22DE22DE22B351040DB2
:10439800600EF324D96E010EF420DA6E030EDB50A2
:1043A8000DE1020EDB500AE1DE52400EDE5CD8A0C1
:1043B800E0EF21F0E2EF21F06FEF21F0020EB0EC18
:1043C8003AF00101B351040D200EF324D96E010E09
:1043D800F420DA6E000EDE6E000EDE6E000EDE6E6B
:1043E800000EDD6E000E7D6E000E7C6EB351040D66
:1043F800200EF324D96E010EF420DA6EDECF56F0CB
:10440800DECF57F0DECF58F0DECF59F07CC090F009
:104418007DC091F00001D89090379137D8909037AF
:104428009137D890903791370101B351040D000EA0
:10443800F3240001926F010EF420936F905192259E
:10444800D96E91519321DA6EDECF5AF0DECF5BF050
:10445800DECF5CF0DECF5DF0B3EC16F00101B351B6
:10446800040D200EF324D96E010EF420DA6E56C026
:10447800DEFF57C0DEFF58C0DEFF59C0DEFF7C4AB2
:104488007D2A7DBE51EF22F07D5009E1030E7C5C50
:10449800D8A051EF22F053EF22F0FAEF21F0B351F8
:1044A800040D200EF324D96E010EF420DA6EDECF4F
:1044B80024F0DECF25F0DECF26F0DECF27F0000E89
:1044C800286E000E296E400E2A6E400E2B6E6EEC82
:1044D8001FF00101B351040D200EF324D96E010E13
:1044E800F420DA6E24C0DEFF25C0DEFF26C0DEFF22
:1044F80027C0DEFFB32B46EF21F0120024BE87EF62
:1045080022F08AEF22F0010E8BEF22F0000E336EBC
:104518000101ADBF92EF22F094EF22F095EF22F067
:10452800B093ADBF9CEF22F09AEF22F0A2EF22F0F9
:10453800000E306E010E2F6EA6EF22F0ACC12FF0E8
:10454800ADC130F0AAC131F0ABC132F03350D8A4BC
:10455800B0EF22F0B2EF22F0B9EF22F0B0A5B7EF3A
:1045680022F0B9EF22F0D2EF22F03106D8A03206BD
:104578003350D8A4C2EF22F0C4EF22F0CAEF22F0E1
:10458800000E2E6E2B0E2D6ECEEF22F0000E2E6E2C
:104598002D0E2D6E2DC033F0DEEF22F0B0A7D7EF31
:1045A80022F0D9EF22F0DEEF22F03106D8A0320651
:1045B800200E336E000E356E4F0E346E000E030162
:1045C8006F6F63EF23F03406D8A03506200E34242D
:1045D800D96E030E3520DA6E1DC001F01EC002F040
:1045E8001FC003F020C004F021C005F022C006F06F
:1045F80023C007F024C008F00A0E096E000E0A6EE8
:10460800000E0B6E000E0C6E000E0D6E000E0E6E80
:10461800000E0F6E000E106E20EC2FF001C025F07A
:1046280002C026F003C027F004C028F005C029F016
:1046380006C02AF007C02BF008C02CF025C013F0E4
:1046480026C014F026EC3CF01350300FDF6E2F0616
:10465800D8A030063106D8A032061DC001F01EC011
:1046680002F01FC003F020C004F021C005F022C0F2
:1046780006F023C007F024C008F00A0E096E000EE9
:104688000A6E000E0B6E000E0C6E000E0D6E000E04
:104698000E6E000E0F6E000E106E5CEC2EF001C058
:1046A8001DF002C01EF003C01FF004C020F005C0BA
:1046B80021F006C022F007C023F008C024F035BE60
:1046C8006EEF23F0355008E13404D8A06EEF23F0E4
:1046D80070EF23F0A1EF23F01D501E101F102010C3
:1046E8002110221023102410D8A47DEF23F07FEF8F
:1046F80023F0E7EF22F030BE8CEF23F0305006E1D4
:104708002F04D8B08AEF23F08CEF23F0E7EF22F0E4
:1047180032BE97EF23F0325008E13104D8A097EF6A
:1047280023F099EF23F0A1EF23F00101B0B39FEF3D
:1047380023F0A1EF23F0E7EF22F03350D8B4A7EF2E
:1047480023F0A9EF23F0B4EF23F03406D8A0350600
:10475800200E3424D96E030E3520DA6E33C0DFFF05
:104768001BC011F01CC012F0200E3424136E030E6F
:104778003520146E31C015F032C016F00EEC37F04B
:1047880011C01BF012C01CF012000101ADBFCFEF29
:1047980023F0D1EF23F0D2EF23F0B093ADBFD9EFE0
:1047A80023F0D7EF23F0DFEF23F0000E316E010E78
:1047B800306EE3EF23F0ACC130F0ADC131F0AAC1E7
:1047C80033F0ABC134F01C501D101E101F10201008
:1047D800211022102310D8A4F4EF23F0F7EF23F0D0
:1047E800010EF8EF23F0000E326EB0A9FEEF23F0B1
:1047F80000EF24F00CEF24F03250D8B406EF24F088
:1048080008EF24F00CEF24F0FE0E3326FF0E3422BE
:10481800780E2418D8B413EF24F015EF24F01BEF0A
:1048280024F0000E2F6E410E2E6E1FEF24F0000EA6
:104838002F6E610E2E6E2EC02DF0000E376E4F0EAD
:10484800366E000E03016F6F7CEF24F03606D8A099
:1048580037061C500F0B356E0A0E356036EF24F004
:1048680038EF24F03CEF24F0300E35263FEF24F0EB
:104878002D50F60F3526200E3624D96E030E37201C
:10488800DA6E35C0DFFF3006D8A031063306D8A06F
:1048980034061CC025F01DC026F01EC027F01FC01E
:1048A80028F020C029F021C02AF022C02BF023C014
:1048B8002CF0050E69EF24F0D8902C322B322A32D6
:1048C80029322832273226322532E82E60EF24F0AA
:1048D80025C01CF026C01DF027C01EF028C01FF000
:1048E80029C020F02AC021F02BC022F02CC023F0D0
:1048F80037BE88EF24F0375009E1020E365CD8A0A5
:1049080088EF24F08AEF24F0BBEF24F01C501D1030
:104918001E101F102010211022102310D8A497EF6A
:1049280024F099EF24F02AEF24F031BEA6EF24F00A
:10493800315006E13004D8B0A4EF24F0A6EF24F0FB
:104948002AEF24F034BEB1EF24F0345008E13304E8
:10495800D8A0B1EF24F0B3EF24F0BBEF24F00101AD
:10496800B0B3B9EF24F0BBEF24F02AEF24F0010133
:10497800B0A9C1EF24F0C3EF24F0EAEF24F03250DD
:10498800D8B4C9EF24F0CBEF24F0EAEF24F0AC510F
:10499800AD11D8B4D2EF24F0D4EF24F0EAEF24F02C
:1049A8003606D8A03706200E3624D96E030E3720D7
:1049B800DA6E24C0DFFF3606D8A03706200E36246C
:1049C800D96E030E3720DA6E300EDF6E1AC011F082
:1049D8001BC012F0200E3624136E030E3720146EFF
:1049E80033C015F034C016F00EEC37F011C01AF0D1
:1049F80012C01BF012000101B205D8A406EF25F081
:104A080008EF25F014EF25F0F90ED06FFF0ED16FE7
:104A1800000ED36F000ED26FB7EC3BF023EF25F0FA
:104A2800020EB519D8A41BEF25F01DEF25F023EFD2
:104A380025F0FC0ED06FFF0ED16FB7EC3BF00101F3
:104A48009F519E119D1109E1050E9C5DD8A02FEF85
:104A580025F031EF25F02AEF26F0080EB519D8A475
:104A680038EF25F03AEF25F04DEF25F0F50ED06F31
:104A7800FF0ED16FB6C1D2F1D36BB7EC3BF0F50E98
:104A88000101D06FFF0ED16FB7C1D2F1D36BB7EC74
:104A98003BF0000E416E000E426E7A0E436E430EDE
:104AA800446E48C128F049C129F04AC12AF04BC1D7
:104AB8002BF050C124F051C125F052C126F053C14A
:104AC80027F06EEC1FF024C078F025C079F026C0DE
:104AD8007AF027C07BF0660E746E660E756E860ED1
:104AE800766E3F0E776E54EC3BF074C03DF075C0A7
:104AF8003EF076C03FF077C040F059EC1DF03DC065
:104B0800ECF13EC0EDF13FC0EEF140C0EFF1000E18
:104B1800416E000E426E7A0E436E430E446E4CC1D7
:104B280028F04DC129F04EC12AF04FC12BF054C1D5
:104B380024F055C125F056C126F057C127F06EEC78
:104B48001FF024C078F025C079F026C07AF027C07D
:104B58007BF0660E746E660E756E860E766E3F0E70
:104B6800776E54EC3BF074C03DF075C03EF076C0F3
:104B78003FF077C040F059EC1DF03DC0F0F13EC069
:104B8800F1F13FC0F2F140C0F3F1ECC156F0EDC1D4
:104B980057F0EEC158F0EFC159F0000E5A6E000EF2
:104BA8005B6E200E5C6E410E5D6EB3EC16F056C067
:104BB800F4F157C0F5F158C0F6F159C0F7F1F0C15A
:104BC80056F0F1C157F0F2C158F0F3C159F0000E98
:104BD8005A6E000E5B6EF00E5C6E410E5D6EB3ECAD
:104BE80016F056C0F8F157C0F9F158C0FAF159C09B
:104BF800FBF1160E0101D06FFE0ED16FF4C1D2F198
:104C0800F5C1D3F1F6C1D4F1F7C1D5F1F8C1D6F1A8
:104C1800F9C1D7F1FAC1D8F1FBC1D9F1B6C1DAF1BE
:104C2800DB6BB7C1DCF1DD6BB2510A0DF3CFDEF1FE
:104C3800F4CFDFF17BEC39F001C0E0F102C0E1F123
:104C480003C0E2F104C0E3F1B7EC3BF01200E2EC80
:104C58003CF0C7EC3CF06CEC3CF0330E01017C6F8F
:104C6800030E7D6F000E7E6F000E7F6FCC0E786F87
:104C78003C0E796F000E7A6F000E7B6F200E846FEA
:104C88004E0E856F000E866F000E876F3BEC21F08D
:104C9800010E0101FD6F7C51605D7D5161597E51AE
:104CA80062597F516359D8A05CEF26F05EEF26F079
:104CB8008DEF26F07C51645D7D5165597E516659B2
:104CC8007F516759D8A06BEF26F06DEF26F08DEF76
:104CD80026F06051785D6151795962517A59635172
:104CE8007B59D8A07AEF26F07CEF26F08DEF26F0DE
:104CF8006451785D6551795966517A5967517B5984
:104D0800D8A089EF26F08BEF26F08DEF26F0000E65
:104D1800FD6FFD51D8A493EF26F096EF26F0010E13
:104D280097EF26F0000EFC6FFC51D8B49EEF26F0EA
:104D3800A0EF26F0E9EF26F0B42B0A0EB419D8A498
:104D4800A8EF26F0AAEF26F0C1EF26F0640EB46FA4
:104D5800B8EC3CF0000E0101A06F000EA16F000E30
:104D6800A26F000EA36F000E9C6F000E9D6F000EC9
:104D78009E6F000E9F6F4AEF26F0630EB465C7EF73
:104D880026F0C9EF26F03DEF27F0640EB46F010E50
:104D9800B0EC3AF01A0E0001FD6FF80EE82EFED7BF
:104DA800FD2FFCD70000020EB0EC3AF00B0E00010C
:104DB800FE6F260EFD6F5D0EE82EFED7FD2FFCD789
:104DC800FE2FFAD700D04AEF26F0000EB46F13EC8E
:104DD80019F0E0EC2BF00101B205D8A4F6EF26F0AB
:104DE800F8EF26F032EF27F036EC29F040EC1BF014
:104DF800010E01019C27000E9D239E239F236AEC30
:104E080038F001019F519E119D1109E1050E9C5D2D
:104E1800D8A011EF27F013EF27F032EF27F0A4C145
:104E280084F0A5C185F0A6C186F0A7C187F0000E61
:104E38000001886F000E896FB40E8A6F420E8B6F67
:104E48001CEC33F00001D8B02CEF27F02EEF27F040
:104E580031EF27F0818A32EF27F0819AFFEC24F0B6
:104E6800010E0101A027000EA123A223A3234AEFCC
:104E780026F04AEF26F007EF00F070C14DF071C13F
:104E88004EF072C14FF073C150F03DC04DF03EC0BE
:104E98004EF03FC04FF040C050F0810E416EFF0E03
:104EA800426E4DC043F04EC044F04FC045F050C074
:104EB80046F0180E65EF27F0D89046324532443256
:104EC8004332E82E60EF27F0435041244B6E000E2A
:104ED80042204C6E4CBE7AEF27F04C5009E1170E79
:104EE8004B5CD8A07AEF27F07CEF27F086EF27F00D
:104EF8003DC03DF03EC03EF03FC03FF040C040F0F6
:104F080049EF28F04CBE8BEF27F08DEF27F0FDEF2F
:104F180027F04BC041F0FF0E426EFF0E436E7F0E2E
:104F2800446E000E456E41669CEF27F0A4EF27F013
:104F380045344532443243324232412E97EF27F00E
:104F480042C047F043C048F044C049F045C04AF069
:104F580047504D14416E48504E14426E49504F14FC
:104F6800436E4A505014446E41504210431044104E
:104F7800D8A4C1EF27F0C3EF27F0C5EF27F07CEFE7
:104F880027F04DC041F04EC042F04FC043F050C032
:104F980044F0200ED5EF27F0D89044324332423205
:104FA8004132E82ED0EF27F0415042104310441010
:104FB800D8B4E1EF27F0E3EF27F0EBEF27F0475005
:104FC8004D2648504E2249504F224A505022471CE5
:104FD800416E481C426E491C436E4A1C446E415047
:104FE8004D1642504E1643504F164450501641EF3E
:104FF80028F04DC041F04EC042F04FC043F050C0C1
:1050080044F0200E0DEF28F0D8904432433242325B
:105018004132E82E08EF28F0415042104310441066
:10502800D8A419EF28F01BEF28F025EF28F0000E80
:105038004D6E000E4E6E000E4F6E000E506E41EF1C
:1050480028F0D8904D34416E4E34426E4F34436E42
:105058005034446E4150421043104410D8B437EFD6
:1050680028F039EF28F041EF28F0000E4D6E000EC1
:105078004E6E800E4F6EBF0E506E4DC03DF04EC04E
:105088003EF04FC03FF050C040F012000101ADBFEC
:1050980050EF28F052EF28F053EF28F0B093ADBF4F
:1050A8005AEF28F058EF28F060EF28F0000E2D6E28
:1050B800010E2C6E64EF28F0ACC12CF0ADC12DF0C0
:1050C800AAC12EF0ABC12FF0000E316E4F0E306E1C
:1050D800000E03016F6FE7EF28F03006D8A0310605
:1050E800200E3024D96E030E3120DA6E1CC001F078
:1050F8001DC002F01EC003F01FC004F020C005F060
:1051080021C006F022C007F023C008F00A0E096E7D
:10511800000E0A6E000E0B6E000E0C6E000E0D6E69
:10512800000E0E6E000E0F6E000E106E81EC35F044
:1051380001C024F002C025F003C026F004C027F007
:1051480005C028F006C029F007C02AF008C02BF0D7
:105158002450300FDF6E2C06D8A02D062E06D8A0BE
:105168002F061CC001F01DC002F01EC003F01FC0B6
:1051780004F020C005F021C006F022C007F023C0CB
:1051880008F00A0E096E000E0A6E000E0B6E000E75
:105198000C6E000E0D6E000E0E6E000E0F6E000EE1
:1051A800106E9DEC34F001C01CF002C01DF003C06D
:1051B8001EF004C01FF005C020F006C021F007C093
:1051C80022F008C023F030503110D8B4EEEF28F0A8
:1051D800F0EF28F021EF29F01C501D101E101F10B1
:1051E8002010211022102310D8A4FDEF28F0FFEF83
:1051F80028F071EF28F02DBE0CEF29F02D5006E1B4
:105208002C04D8B00AEF29F00CEF29F071EF28F040
:105218002FBE17EF29F02F5008E12E04D8A017EF62
:1052280029F019EF29F021EF29F00101B0B31FEFA0
:1052380029F021EF29F071EF28F01AC011F01BC0F6
:1052480012F0200E3024136E030E3120146E2EC07F
:1052580015F02FC016F00EEC37F011C01AF012C07E
:105268001BF0120001015C51585D0001906F0101B3
:105278005D5159590001916F030E01019C15000100
:10528800926F000E01019D150001936FD89092371F
:105298009337680E9225D96E010E9321DA6E90C06D
:1052A800DEFF91C0DDFF000E0101BC6F000EBD6F77
:1052B800000EBE6F000EBF6F000E7D6E000E7C6E7E
:1052C800BCC156F0BDC157F0BEC158F0BFC159F0BE
:1052D800D8907C34D96E7D34DA6E680ED926010EEA
:1052E800DA22DECF90F0DDCF91F090C016F091C0B9
:1052F80017F0186A196A000E06EC2BF016C05AF05F
:1053080017C05BF018C05CF019C05DF0B3EC16F084
:1053180056C0BCF157C0BDF158C0BEF159C0BFF16D
:105328007C4A7D2A7DBEA2EF29F07D5009E1040E5A
:105338007C5CD8A0A2EF29F0A4EF29F064EF29F053
:10534800000E246E600E256E6A0E266E480E276EBD
:10535800BCC128F0BDC129F0BEC12AF0BFC12BF0E5
:105368006EEC1FF024C0BCF125C0BDF126C0BEF113
:1053780027C0BFF1000E0001846F000E856F000E7C
:10538800866F400E876FBCC178F0BDC179F0BEC191
:105398007AF0BFC17BF00101B751166E176A186A1F
:1053A800196A010E06EC2BF016C074F017C075F0E0
:1053B80018C076F019C077F054EC3BF074C080F058
:1053C80075C081F076C082F077C083F02FEC3BF097
:1053D80080C088F081C089F082C08AF083C08BF0D9
:1053E8001CEC33F00001D8B0FCEF29F0FEEF29F0F7
:1053F8001DEF2AF0000E5A6E000E5B6E000E5C6EFA
:105408003F0E5D6EBCC156F0BDC157F0BEC158F02D
:10541800BFC159F0B3EC16F056C066F057C067F03C
:1054280058C068F059C069F099EC32F06650010133
:10543800B76F12000101ADBF24EF2AF026EF2AF062
:1054480027EF2AF0B093ADBF2EEF2AF02CEF2AF009
:1054580034EF2AF0000E2D6E010E2C6E38EF2AF074
:10546800ACC12CF0ADC12DF0AAC12FF0ABC130F00A
:10547800000E326E4F0E316E000E03016F6F000E7C
:105488002E6E8BEF2AF03106D8A032061C50070B7F
:105498002E6E200E3124D96E030E3220DA6E2E5075
:1054A800300FDF6E2C06D8A02D062F06D8A03006A8
:1054B8001CC024F01DC025F01EC026F01FC027F018
:1054C80020C028F021C029F022C02AF023C02BF0E8
:1054D800040E78EF2AF0D8902B322A32293228325B
:1054E8002732263225322432E82E6FEF2AF024C0E4
:1054F8001CF025C01DF026C01EF027C01FF028C0D4
:1055080020F029C021F02AC022F02BC023F032BE9F
:1055180096EF2AF0325008E13104D8A096EF2AF02D
:1055280098EF2AF0C9EF2AF01C501D101E101F100A
:105538002010211022102310D8A4A5EF2AF0A7EFDD
:105548002AF047EF2AF02DBEB4EF2AF02D5006E1DD
:105558002C04D8B0B2EF2AF0B4EF2AF047EF2AF0C3
:1055680030BEBFEF2AF0305008E12F04D8A0BFEFBB
:105578002AF0C1EF2AF0C9EF2AF00101B0B3C7EF52
:105588002AF0C9EF2AF047EF2AF02E50D8A4CFEF1F
:105598002AF0D1EF2AF0DBEF2AF00101AC51AD116E
:1055A800D8A4D9EF2AF0DBEF2AF0F1EF2AF00101B5
:1055B800B0A9E1EF2AF0E3EF2AF0F1EF2AF0310683
:1055C800D8A03206200E3124D96E030E3220DA6EAE
:1055D800300EDF6E2F06D8A030061AC011F01BC09F
:1055E80012F0200E3124136E030E3220146E2FC0D9
:1055F80015F030C016F00EEC37F011C01AF012C0DA
:105608001BF012001E6E1E50D8B40DEF2BF00FEFDA
:105618002BF031EF2BF019BE16EF2BF014EF2BF017
:1056280031EF2BF016C01AF017C01BF018C01CF091
:1056380019C01DF01A1E1B1E1C1E1D1E1A2A000E44
:105648001B221C221D221AC020F01BC021F01CC0E6
:1056580022F01DC023F039EF2BF016C020F017C040
:1056680021F018C022F019C023F016501710181096
:105678001910D8A442EF2BF044EF2BF04EEF2BF08B
:10568800000E166E000E176E000E186E000E196EC4
:10569800DFEF2BF0960E1F6E58EF2BF01F2AD890D5
:1056A8002332223221322032000E20141A6E000ECC
:1056B80021141B6E000E22141C6EFE0E23141D6E88
:1056C8001A501B101C101D10D8A46DEF2BF06FEF93
:1056D8002BF052EF2BF07DEF2BF01F2A010E202626
:1056E800000E212222222322D89023322232213274
:1056F8002032000E20141A6E000E21141B6E000EAC
:1057080022141C6EFF0E23141D6E1A501B101C1041
:105718001D10D8A492EF2BF094EF2BF071EF2BF023
:105728009CEF2BF01F06D8902036213622362336E0
:1057380022BEA1EF2BF0A3EF2BF0ABEF2BF0020E64
:105748001F60A9EF2BF0ABEF2BF096EF2BF01FB0FB
:10575800B0EF2BF0B2EF2BF0B3EF2BF0229ED890E6
:105768001F321FC01AF01B6A1C6A1D6A1AC01DF07E
:105778001C6A1B6A1A6A1A5020121B5021121C50EC
:1057880022121D5023121E50D8B4CDEF2BF0CFEFAC
:105798002BF0D7EF2BF019BED6EF2BF0D4EF2BF070
:1057A800D7EF2BF0238E20C016F021C017F022C0AF
:1057B80018F023C019F01200000E0101B26F98C151
:1057C80074F099C175F09AC176F09BC177F020C149
:1057D80078F021C179F022C17AF023C17BF054EC32
:1057E8003BF0070E0101A0157C6E000EA1157D6E21
:1057F800D8907C367D36D8907C367D36000E7C2459
:10580800D96E030E7D20DA6E74C0DEFF75C0DEFF30
:1058180076C0DEFF77C0DEFF000E946F000E956F36
:10582800000E966F000E976F000E0001916F000E2C
:10583800906F94C156F095C157F096C158F097C132
:1058480059F0000E7C6E030E7D6ED8909035D96E9F
:105858009135DA6ED890D936DA367C50D9267D5013
:10586800DA22DECF5AF0DECF5BF0DECF5CF0DECF9F
:105878005DF0B3EC16F056C094F157C095F158C0DE
:1058880096F159C097F10001904B912B91BF56EFBB
:105898002CF0915109E1080E905DD8A056EF2CF03C
:1058A80058EF2CF01DEF2CF094C124F095C125F091
:1058B80096C126F097C127F0000E286E000E296EBB
:1058C800000E2A6E410E2B6E6EEC1FF024C094F170
:1058D80025C095F126C096F127C097F1010197BF21
:1058E8007AEF2CF078EF2CF09BEF2CF0050EB565D5
:1058F80080EF2CF082EF2CF09BEF2CF058C15CF17C
:1059080059C15DF15AC15EF15BC15FF17BEC39F0C1
:1059180001C058F102C059F103C05AF104C05BF14B
:10592800010E0101B26F000EB56FB8EF2CF0000E3A
:105938000001846F000E856F000E866F000E876F62
:1059480094C188F095C189F096C18AF097C18BF00F
:105958001CEC33F00001D8B0B4EF2CF0B6EF2CF00B
:10596800B8EF2CF00101B52B12000CC014F00DC0DB
:1059780015F014501510D8A4C4EF2CF0C6EF2CF075
:10598800CAEF2CF0D20E146EFF0E156E000E176EB5
:10599800000E166ED2EF2CF0164A172A1650142451
:1059A8000E6E175015200F6E0EC0F6FF0FC0F7FFD2
:1059B800000EF86E0F0EF76403D00800F55005D0FE
:1059C800F6CFE1FFF7CFE2FFE7500009D8A4EFEFE9
:1059D8002CF0F1EF2CF0D0EF2CF00101ADBFF7EF78
:1059E8002CF0F9EF2CF00CEF2DF01650AC5DAD510A
:1059F800800A0E6E1750800A0E58D8B006EF2DF0A8
:105A080008EF2DF00CEF2DF0ACC116F0ADC117F07A
:105A180016C010F017C011F0AAC112F0ABC113F0F4
:105A2800B0B119EF2DF01BEF2DF057EF2DF029EF46
:105A38002DF0000E026E200E016E0AC003F00BC09E
:105A480004F0E9EC35F0164A172A1250165C175084
:105A5800800A0E6E1350800A0E58D8A036EF2DF02B
:105A680038EF2DF01DEF2DF057EF2DF014C0F6FF95
:105A780015C0F7FF000EF86E0F0EF76403D008008C
:105A8800F55005D0F6CFE1FFF7CFE2FFE7500E6EF5
:105A98000E50016E026A0AC003F00BC004F0E9EC74
:105AA80035F0144A152A1006D8A01106102806E168
:105AB8001128D8A462EF2DF064EF2DF03AEF2DF005
:105AC8000101B0A16AEF2DF06CEF2DF089EF2DF0F8
:105AD8007AEF2DF0000E026E200E016E0AC003F060
